{"contracts/CirclePaymaster.sol":{"CirclePaymaster":{"abi":[{"inputs":[{"internalType":"contract IEntryPoint","name":"_entryPoint","type":"address"},{"internalType":"contract IERC20","name":"_usdc","type":"address"},{"internalType":"address","name":"_owner","type":"address"}],"stateMutability":"nonpayable","type":"constructor"},{"inputs":[],"name":"ECDSAInvalidSignature","type":"error"},{"inputs":[{"internalType":"uint256","name":"length","type":"uint256"}],"name":"ECDSAInvalidSignatureLength","type":"error"},{"inputs":[{"internalType":"bytes32","name":"s","type":"bytes32"}],"name":"ECDSAInvalidSignatureS","type":"error"},{"inputs":[{"internalType":"address","name":"owner","type":"address"}],"name":"OwnableInvalidOwner","type":"error"},{"inputs":[{"internalType":"address","name":"account","type":"address"}],"name":"OwnableUnauthorizedAccount","type":"error"},{"inputs":[{"internalType":"address","name":"token","type":"address"}],"name":"SafeERC20FailedOperation","type":"error"},{"anonymous":false,"inputs":[{"indexed":true,"internalType":"address","name":"previousOwner","type":"address"},{"indexed":true,"internalType":"address","name":"newOwner","type":"address"}],"name":"OwnershipTransferred","type":"event"},{"anonymous":false,"inputs":[{"indexed":false,"internalType":"uint256","name":"oldRate","type":"uint256"},{"indexed":false,"internalType":"uint256","name":"newRate","type":"uint256"}],"name":"UsdcToEthRateUpdated","type":"event"},{"anonymous":false,"inputs":[{"indexed":true,"internalType":"address","name":"user","type":"address"},{"indexed":false,"internalType":"uint256","name":"usdcAmount","type":"uint256"},{"indexed":false,"internalType":"uint256","name":"ethAmount","type":"uint256"},{"indexed":false,"internalType":"bytes32","name":"userOpHash","type":"bytes32"}],"name":"UserOperationSponsored","type":"event"},{"inputs":[],"name":"SIGNATURE_OFFSET","outputs":[{"internalType":"uint256","name":"","type":"uint256"}],"stateMutability":"view","type":"function"},{"inputs":[],"name":"VALID_TIMESTAMP_OFFSET","outputs":[{"internalType":"uint256","name":"","type":"uint256"}],"stateMutability":"view","type":"function"},{"inputs":[{"internalType":"uint256","name":"ethAmount","type":"uint256"}],"name":"calculateUsdcCost","outputs":[{"internalType":"uint256","name":"","type":"uint256"}],"stateMutability":"view","type":"function"},{"inputs":[],"name":"deposit","outputs":[],"stateMutability":"payable","type":"function"},{"inputs":[],"name":"entryPoint","outputs":[{"internalType":"contract IEntryPoint","name":"","type":"address"}],"stateMutability":"view","type":"function"},{"inputs":[],"name":"getDeposit","outputs":[{"internalType":"uint256","name":"","type":"uint256"}],"stateMutability":"view","type":"function"},{"inputs":[{"internalType":"address","name":"user","type":"address"}],"name":"getNonce","outputs":[{"internalType":"uint256","name":"","type":"uint256"}],"stateMutability":"view","type":"function"},{"inputs":[{"internalType":"address","name":"","type":"address"}],"name":"nonces","outputs":[{"internalType":"uint256","name":"","type":"uint256"}],"stateMutability":"view","type":"function"},{"inputs":[],"name":"owner","outputs":[{"internalType":"address","name":"","type":"address"}],"stateMutability":"view","type":"function"},{"inputs":[{"internalType":"enum IPaymaster.PostOpMode","name":"mode","type":"uint8"},{"internalType":"bytes","name":"context","type":"bytes"},{"internalType":"uint256","name":"actualGasCost","type":"uint256"}],"name":"postOp","outputs":[],"stateMutability":"nonpayable","type":"function"},{"inputs":[],"name":"renounceOwnership","outputs":[],"stateMutability":"nonpayable","type":"function"},{"inputs":[{"internalType":"address","name":"newOwner","type":"address"}],"name":"transferOwnership","outputs":[],"stateMutability":"nonpayable","type":"function"},{"inputs":[{"internalType":"uint256","name":"newRate","type":"uint256"}],"name":"updateUsdcToEthRate","outputs":[],"stateMutability":"nonpayable","type":"function"},{"inputs":[],"name":"usdc","outputs":[{"internalType":"contract IERC20","name":"","type":"address"}],"stateMutability":"view","type":"function"},{"inputs":[],"name":"usdcToEthRate","outputs":[{"internalType":"uint256","name":"","type":"uint256"}],"stateMutability":"view","type":"function"},{"inputs":[{"components":[{"internalType":"address","name":"sender","type":"address"},{"internalType":"uint256","name":"nonce","type":"uint256"},{"internalType":"bytes","name":"initCode","type":"bytes"},{"internalType":"bytes","name":"callData","type":"bytes"},{"internalType":"uint256","name":"callGasLimit","type":"uint256"},{"internalType":"uint256","name":"verificationGasLimit","type":"uint256"},{"internalType":"uint256","name":"preVerificationGas","type":"uint256"},{"internalType":"uint256","name":"maxFeePerGas","type":"uint256"},{"internalType":"uint256","name":"maxPriorityFeePerGas","type":"uint256"},{"internalType":"bytes","name":"paymasterAndData","type":"bytes"},{"internalType":"bytes","name":"signature","type":"bytes"}],"internalType":"struct UserOperation","name":"userOp","type":"tuple"},{"internalType":"bytes32","name":"userOpHash","type":"bytes32"},{"internalType":"uint256","name":"maxCost","type":"uint256"}],"name":"validatePaymasterUserOp","outputs":[{"internalType":"bytes","name":"context","type":"bytes"},{"internalType":"uint256","name":"validationData","type":"uint256"}],"stateMutability":"nonpayable","type":"function"},{"inputs":[{"internalType":"uint256","name":"amount","type":"uint256"}],"name":"withdrawDeposit","outputs":[],"stateMutability":"nonpayable","type":"function"},{"inputs":[{"internalType":"uint256","name":"amount","type":"uint256"}],"name":"withdrawUsdc","outputs":[],"stateMutability":"nonpayable","type":"function"}],"evm":{"bytecode":{"linkReferences":{},"object":"60c03461014857601f61135038819003918201601f19168301916001600160401b0383118484101761014d578084926060946040528339810103126101485780516001600160a01b0391908281168103610148576020820151918383168303610148576040015183811680910361014857801561012f57600080546001600160a01b03198116831782556040519516907f8be0079c531659141344cd1fd0a4f28419497f9722a3daafe3b4186f6b6457e09080a36608e1bc9bf0400060015560805260a0526111ec9081610164823960805181818161011f015281816108940152818161095801528181610a8001528181610d260152611089015260a051818181610269015281816102d50152818161049401528181610c9101528181610ccb0152818161111501526111580152f35b604051631e4fbdf760e01b815260006004820152602490fd5b600080fd5b634e487b7160e01b600052604160045260246000fdfe608080604052600436101561001357600080fd5b600090813560e01c9081632d0335ab14610d8d5750806333289a4614610cfa5780633e413bee14610cb55780635b06dece14610c625780636c7e9b3c14610c46578063715018a614610bec5780637ecebe0014610baf5780638aeb3ce714610b5a5780638da5cb5b14610b33578063a9a2340914610acb578063ac2db91a14610aaf578063b0d691fe14610a6a578063b95bab66146109d8578063c399ec881461092b578063ce2605af1461090d578063d0e30db01461087d578063f2fde38b146107eb5763f465c77e146100e757600080fd5b346107e8576003196060368201126107e45760043567ffffffffffffffff81116107c457610160813603928301126107c45761014d337f00000000000000000000000000000000000000000000000000000000000000006001600160a01b031614610df3565b61012481013591602219018212156107c4576004828201013567ffffffffffffffff81116107e057803603602484840101136107e057806014116107e057828201019160a0601319828401850301126107e0576101ae603882840101610e3f565b9260b8828401013567ffffffffffffffff81116107dc5760249083850101910190816057820112156107dc57603881013567ffffffffffffffff81116107c857908691604051936102096020601f19601f8501160186610e83565b818552605882840101116107c45780605860209301838601378301015260988284010135421061078957607882840101354211610750576040516370a0823160e01b81526001600160a01b038581166004830152602090829060249082907f0000000000000000000000000000000000000000000000000000000000000000165afa9081156106d557869161071e575b5060588385010135116106e057604051636eb1769f60e11b81526001600160a01b038581166004830152306024830152602090829060449082907f0000000000000000000000000000000000000000000000000000000000000000165afa9081156106d557869161069e575b50605883850101351161065957620f424060443581604435020481146044351517156106455760015461033b9160443502610ea5565b6058838501013510610600576001600160a01b038416855260026020526040852080549060001982146105ec576001820190556040519060243560208301526bffffffffffffffffffffffff198660601b16604083015260588486010135605483015260788486010135607483015260988486010135609483015260b482015260b481528060e081011067ffffffffffffffff60e08301111761059c57610426918160e061041d9301604052602081519101207f19457468657265756d205369676e6564204d6573736167653a0a3332000000008852601c52603c8720610f2d565b90929192610fed565b6001600160a01b038481169116036105b2576040516323b872dd60e01b60208201526001600160a01b038416602482015230604482015282820160580135606480830191909152815260a081019067ffffffffffffffff82118183101761059c576104b890869495926040527f0000000000000000000000000000000000000000000000000000000000000000610ec5565b6040519060018060a01b03811660208301526058838601013560408301526044356060830152606082526104eb82610e67565b7fafe65894f5dc3ec01b36eb697ab05531317b716be71d4669d818e0b0e774e0306060604051926058868901013584526044356020850152602435604085015260018060a01b031692a260405193849260408452825192836040860152855b8481106105845750506078906060958685870101526098818401013560e01b9201013560a01b176020830152601f80199101168101030190f35b602082820181015160608a840101528896500161054a565b634e487b7160e01b600052604160045260246000fd5b60405162461bcd60e51b81526020600482015260126024820152715369676e617475726520696e76616c69646560701b6044820152606490fd5b634e487b7160e01b87526011600452602487fd5b60405162461bcd60e51b815260206004820152601860248201527f4d6f6e74616e74205553444320696e737566666973616e7400000000000000006044820152606490fd5b634e487b7160e01b86526011600452602486fd5b60405162461bcd60e51b815260206004820152601b60248201527f416c6c6f77616e6365205553444320696e737566666973616e746500000000006044820152606490fd5b90506020813d6020116106cd575b816106b960209383610e83565b810103126106c8575138610305565b600080fd5b3d91506106ac565b6040513d88823e3d90fd5b60405162461bcd60e51b815260206004820152601660248201527514dbdb1919481554d110c81a5b9cdd59999a5cd85b9d60521b6044820152606490fd5b90506020813d602011610748575b8161073960209383610e83565b810103126106c8575138610299565b3d915061072c565b60405162461bcd60e51b81526020600482015260116024820152705061796d61737465723a2065787069726560781b6044820152606490fd5b60405162461bcd60e51b815260206004820152601360248201527214185e5b585cdd195c8e881d1c9bdc081d1bdd606a1b6044820152606490fd5b8280fd5b634e487b7160e01b87526041600452602487fd5b8580fd5b8380fd5b5080fd5b80fd5b50346107e85760203660031901126107e8576004356001600160a01b03818116918290036107c45761081b610dc7565b811561086457600054826bffffffffffffffffffffffff60a01b821617600055167f8be0079c531659141344cd1fd0a4f28419497f9722a3daafe3b4186f6b6457e0600080a380f35b604051631e4fbdf760e01b815260048101849052602490fd5b50806003193601126107e857610891610dc7565b807f00000000000000000000000000000000000000000000000000000000000000006001600160a01b0316803b1561090a57816024916040519283809263b760faf960e01b825230600483015234905af180156108ff576108ef5750f35b6108f890610e53565b6107e85780f35b6040513d84823e3d90fd5b50fd5b50346107e857806003193601126107e8576020600154604051908152f35b50346107e857806003193601126107e8576040516370a0823160e01b8152306004820152906020826024817f00000000000000000000000000000000000000000000000000000000000000006001600160a01b03165afa9081156109cc579061099a575b602090604051908152f35b506020813d82116109c4575b816109b360209383610e83565b810103126106c8576020905161098f565b3d91506109a6565b604051903d90823e3d90fd5b50346107e85760203660031901126107e8576004356109f5610dc7565b8015610a355760407fe335b031f0ef293eb2ae4bb1453ef1ba92ffc180905bf925e29290dd546c166191600154908060015582519182526020820152a180f35b60405162461bcd60e51b815260206004820152600d60248201526c5461757820696e76616c69646560981b6044820152606490fd5b50346107e857806003193601126107e8576040517f00000000000000000000000000000000000000000000000000000000000000006001600160a01b03168152602090f35b50346107e857806003193601126107e857602060405160148152f35b50346107e85760603660031901126107e85760043560038110156107e45760243567ffffffffffffffff8082116107e057366023830112156107e05781600401359081116107e05736602482840101116107e057610b30926024604435930190611072565b80f35b50346107e857806003193601126107e857546040516001600160a01b039091168152602090f35b50346107e85760203660031901126107e857620f424060043581810292918115918404141715610b9b576020610b938360015490610ea5565b604051908152f35b634e487b7160e01b81526011600452602490fd5b50346107e85760203660031901126107e8576004356001600160a01b038116908190036107e4578160409160209352600283522054604051908152f35b50346107e857806003193601126107e857610c05610dc7565b600080546001600160a01b0319811682556001600160a01b03167f8be0079c531659141344cd1fd0a4f28419497f9722a3daafe3b4186f6b6457e08280a380f35b50346107e857806003193601126107e857602060405160548152f35b50346107e85760203660031901126107e857610c7c610dc7565b8054610b3090600435906001600160a01b03167f0000000000000000000000000000000000000000000000000000000000000000611178565b50346107e857806003193601126107e8576040517f00000000000000000000000000000000000000000000000000000000000000006001600160a01b03168152602090f35b50346107e85760203660031901126107e857610d14610dc7565b805481906001600160a01b03908116907f000000000000000000000000000000000000000000000000000000000000000016803b15610d895760448392604051948593849263040b850f60e31b8452600484015260043560248401525af180156108ff57610d80575080f35b610b3090610e53565b5050fd5b9050346107e45760203660031901126107e4576004356001600160a01b038116908190036107c45782604091602094526002845220548152f35b6000546001600160a01b03163303610ddb57565b60405163118cdaa760e01b8152336004820152602490fd5b15610dfa57565b60405162461bcd60e51b815260206004820152601860248201527f5365756c20456e747279506f696e74206175746f7269736500000000000000006044820152606490fd5b35906001600160a01b03821682036106c857565b67ffffffffffffffff811161059c57604052565b6080810190811067ffffffffffffffff82111761059c57604052565b90601f8019910116810190811067ffffffffffffffff82111761059c57604052565b8115610eaf570490565b634e487b7160e01b600052601260045260246000fd5b906000602091828151910182855af115610f21576000513d610f1857506001600160a01b0381163b155b610ef65750565b604051635274afe760e01b81526001600160a01b039091166004820152602490fd5b60011415610eef565b6040513d6000823e3d90fd5b8151919060418303610f5e57610f5792506020820151906060604084015193015160001a90610f69565b9192909190565b505060009160029190565b91907f7fffffffffffffffffffffffffffffff5d576e7357a4501ddfe92f46681b20a08411610fe157926020929160ff608095604051948552168484015260408301526060820152600092839182805260015afa156109cc5780516001600160a01b03811615610fd857918190565b50809160019190565b50505060009160039190565b600481101561105c5780610fff575050565b600181036110195760405163f645eedf60e01b8152600490fd5b6002810361103a5760405163fce698f760e01b815260048101839052602490fd5b6003146110445750565b602490604051906335e2f38360e21b82526004820152fd5b634e487b7160e01b600052602160045260246000fd5b9290916001600160a01b039060609084906110b0337f0000000000000000000000000000000000000000000000000000000000000000861614610df3565b810103126106c85760206110c384610e3f565b930135921692600381101561105c5760021461115157620f42409081810291818304149015171561113b576001546110fa91610ea5565b80821161110657505050565b810390811161113b57611139917f0000000000000000000000000000000000000000000000000000000000000000611178565b565b634e487b7160e01b600052601160045260246000fd5b50611139917f00000000000000000000000000000000000000000000000000000000000000005b60405163a9059cbb60e01b60208201526001600160a01b039092166024830152604480830193909352918152611139916111b182610e67565b610ec556fea2646970667358221220a91ff8cb4ac9fa8a827e1458b7b5bffe2125abe6fb1b0df5411d9c3c56b1b78564736f6c63430008140033","opcodes":"PUSH1 0xC0 CALLVALUE PUSH2 0x148 JUMPI PUSH1 0x1F PUSH2 0x1350 CODESIZE DUP2 SWAP1 SUB SWAP2 DUP3 ADD PUSH1 0x1F NOT AND DUP4 ADD SWAP2 PUSH1 0x1 PUSH1 0x1 PUSH1 0x40 SHL SUB DUP4 GT DUP5 DUP5 LT OR PUSH2 0x14D JUMPI DUP1 DUP5 SWAP3 PUSH1 0x60 SWAP5 PUSH1 0x40 MSTORE DUP4 CODECOPY DUP2 ADD SUB SLT PUSH2 0x148 JUMPI DUP1 MLOAD PUSH1 0x1 PUSH1 0x1 PUSH1 0xA0 SHL SUB SWAP2 SWAP1 DUP3 DUP2 AND DUP2 SUB PUSH2 0x148 JUMPI PUSH1 0x20 DUP3 ADD MLOAD SWAP2 DUP4 DUP4 AND DUP4 SUB PUSH2 0x148 JUMPI PUSH1 0x40 ADD MLOAD DUP4 DUP2 AND DUP1 SWAP2 SUB PUSH2 0x148 JUMPI DUP1 ISZERO PUSH2 0x12F JUMPI PUSH1 0x0 DUP1 SLOAD PUSH1 0x1 PUSH1 0x1 PUSH1 0xA0 SHL SUB NOT DUP2 AND DUP4 OR DUP3 SSTORE PUSH1 0x40 MLOAD SWAP6 AND SWAP1 PUSH32 0x8BE0079C531659141344CD1FD0A4F28419497F9722A3DAAFE3B4186F6B6457E0 SWAP1 DUP1 LOG3 PUSH7 0x8E1BC9BF04000 PUSH1 0x1 SSTORE PUSH1 0x80 MSTORE PUSH1 0xA0 MSTORE PUSH2 0x11EC SWAP1 DUP2 PUSH2 0x164 DUP3 CODECOPY PUSH1 0x80 MLOAD DUP2 DUP2 DUP2 PUSH2 0x11F ADD MSTORE DUP2 DUP2 PUSH2 0x894 ADD MSTORE DUP2 DUP2 PUSH2 0x958 ADD MSTORE DUP2 DUP2 PUSH2 0xA80 ADD MSTORE DUP2 DUP2 PUSH2 0xD26 ADD MSTORE PUSH2 0x1089 ADD MSTORE PUSH1 0xA0 MLOAD DUP2 DUP2 DUP2 PUSH2 0x269 ADD MSTORE DUP2 DUP2 PUSH2 0x2D5 ADD MSTORE DUP2 DUP2 PUSH2 0x494 ADD MSTORE DUP2 DUP2 PUSH2 0xC91 ADD MSTORE DUP2 DUP2 PUSH2 0xCCB ADD MSTORE DUP2 DUP2 PUSH2 0x1115 ADD MSTORE PUSH2 0x1158 ADD MSTORE RETURN JUMPDEST PUSH1 0x40 MLOAD PUSH4 0x1E4FBDF7 PUSH1 0xE0 SHL DUP2 MSTORE PUSH1 0x0 PUSH1 0x4 DUP3 ADD MSTORE PUSH1 0x24 SWAP1 REVERT JUMPDEST PUSH1 0x0 DUP1 REVERT JUMPDEST PUSH4 0x4E487B71 PUSH1 0xE0 SHL PUSH1 0x0 MSTORE PUSH1 0x41 PUSH1 0x4 MSTORE PUSH1 0x24 PUSH1 0x0 REVERT INVALID PUSH1 0x80 DUP1 PUSH1 0x40 MSTORE PUSH1 0x4 CALLDATASIZE LT ISZERO PUSH2 0x13 JUMPI PUSH1 0x0 DUP1 REVERT JUMPDEST PUSH1 0x0 SWAP1 DUP2 CALLDATALOAD PUSH1 0xE0 SHR SWAP1 DUP2 PUSH4 0x2D0335AB EQ PUSH2 0xD8D JUMPI POP DUP1 PUSH4 0x33289A46 EQ PUSH2 0xCFA JUMPI DUP1 PUSH4 0x3E413BEE EQ PUSH2 0xCB5 JUMPI DUP1 PUSH4 0x5B06DECE EQ PUSH2 0xC62 JUMPI DUP1 PUSH4 0x6C7E9B3C EQ PUSH2 0xC46 JUMPI DUP1 PUSH4 0x715018A6 EQ PUSH2 0xBEC JUMPI DUP1 PUSH4 0x7ECEBE00 EQ PUSH2 0xBAF JUMPI DUP1 PUSH4 0x8AEB3CE7 EQ PUSH2 0xB5A JUMPI DUP1 PUSH4 0x8DA5CB5B EQ PUSH2 0xB33 JUMPI DUP1 PUSH4 0xA9A23409 EQ PUSH2 0xACB JUMPI DUP1 PUSH4 0xAC2DB91A EQ PUSH2 0xAAF JUMPI DUP1 PUSH4 0xB0D691FE EQ PUSH2 0xA6A JUMPI DUP1 PUSH4 0xB95BAB66 EQ PUSH2 0x9D8 JUMPI DUP1 PUSH4 0xC399EC88 EQ PUSH2 0x92B JUMPI DUP1 PUSH4 0xCE2605AF EQ PUSH2 0x90D JUMPI DUP1 PUSH4 0xD0E30DB0 EQ PUSH2 0x87D JUMPI DUP1 PUSH4 0xF2FDE38B EQ PUSH2 0x7EB JUMPI PUSH4 0xF465C77E EQ PUSH2 0xE7 JUMPI PUSH1 0x0 DUP1 REVERT JUMPDEST CALLVALUE PUSH2 0x7E8 JUMPI PUSH1 0x3 NOT PUSH1 0x60 CALLDATASIZE DUP3 ADD SLT PUSH2 0x7E4 JUMPI PUSH1 0x4 CALLDATALOAD PUSH8 0xFFFFFFFFFFFFFFFF DUP2 GT PUSH2 0x7C4 JUMPI PUSH2 0x160 DUP2 CALLDATASIZE SUB SWAP3 DUP4 ADD SLT PUSH2 0x7C4 JUMPI PUSH2 0x14D CALLER PUSH32 0x0 PUSH1 0x1 PUSH1 0x1 PUSH1 0xA0 SHL SUB AND EQ PUSH2 0xDF3 JUMP JUMPDEST PUSH2 0x124 DUP2 ADD CALLDATALOAD SWAP2 PUSH1 0x22 NOT ADD DUP3 SLT ISZERO PUSH2 0x7C4 JUMPI PUSH1 0x4 DUP3 DUP3 ADD ADD CALLDATALOAD PUSH8 0xFFFFFFFFFFFFFFFF DUP2 GT PUSH2 0x7E0 JUMPI DUP1 CALLDATASIZE SUB PUSH1 0x24 DUP5 DUP5 ADD ADD SGT PUSH2 0x7E0 JUMPI DUP1 PUSH1 0x14 GT PUSH2 0x7E0 JUMPI DUP3 DUP3 ADD ADD SWAP2 PUSH1 0xA0 PUSH1 0x13 NOT DUP3 DUP5 ADD DUP6 SUB ADD SLT PUSH2 0x7E0 JUMPI PUSH2 0x1AE PUSH1 0x38 DUP3 DUP5 ADD ADD PUSH2 0xE3F JUMP JUMPDEST SWAP3 PUSH1 0xB8 DUP3 DUP5 ADD ADD CALLDATALOAD PUSH8 0xFFFFFFFFFFFFFFFF DUP2 GT PUSH2 0x7DC JUMPI PUSH1 0x24 SWAP1 DUP4 DUP6 ADD ADD SWAP2 ADD SWAP1 DUP2 PUSH1 0x57 DUP3 ADD SLT ISZERO PUSH2 0x7DC JUMPI PUSH1 0x38 DUP2 ADD CALLDATALOAD PUSH8 0xFFFFFFFFFFFFFFFF DUP2 GT PUSH2 0x7C8 JUMPI SWAP1 DUP7 SWAP2 PUSH1 0x40 MLOAD SWAP4 PUSH2 0x209 PUSH1 0x20 PUSH1 0x1F NOT PUSH1 0x1F DUP6 ADD AND ADD DUP7 PUSH2 0xE83 JUMP JUMPDEST DUP2 DUP6 MSTORE PUSH1 0x58 DUP3 DUP5 ADD ADD GT PUSH2 0x7C4 JUMPI DUP1 PUSH1 0x58 PUSH1 0x20 SWAP4 ADD DUP4 DUP7 ADD CALLDATACOPY DUP4 ADD ADD MSTORE PUSH1 0x98 DUP3 DUP5 ADD ADD CALLDATALOAD TIMESTAMP LT PUSH2 0x789 JUMPI PUSH1 0x78 DUP3 DUP5 ADD ADD CALLDATALOAD TIMESTAMP GT PUSH2 0x750 JUMPI PUSH1 0x40 MLOAD PUSH4 0x70A08231 PUSH1 0xE0 SHL DUP2 MSTORE PUSH1 0x1 PUSH1 0x1 PUSH1 0xA0 SHL SUB DUP6 DUP2 AND PUSH1 0x4 DUP4 ADD MSTORE PUSH1 0x20 SWAP1 DUP3 SWAP1 PUSH1 0x24 SWAP1 DUP3 SWAP1 PUSH32 0x0 AND GAS STATICCALL SWAP1 DUP2 ISZERO PUSH2 0x6D5 JUMPI DUP7 SWAP2 PUSH2 0x71E JUMPI JUMPDEST POP PUSH1 0x58 DUP4 DUP6 ADD ADD CALLDATALOAD GT PUSH2 0x6E0 JUMPI PUSH1 0x40 MLOAD PUSH4 0x6EB1769F PUSH1 0xE1 SHL DUP2 MSTORE PUSH1 0x1 PUSH1 0x1 PUSH1 0xA0 SHL SUB DUP6 DUP2 AND PUSH1 0x4 DUP4 ADD MSTORE ADDRESS PUSH1 0x24 DUP4 ADD MSTORE PUSH1 0x20 SWAP1 DUP3 SWAP1 PUSH1 0x44 SWAP1 DUP3 SWAP1 PUSH32 0x0 AND GAS STATICCALL SWAP1 DUP2 ISZERO PUSH2 0x6D5 JUMPI DUP7 SWAP2 PUSH2 0x69E JUMPI JUMPDEST POP PUSH1 0x58 DUP4 DUP6 ADD ADD CALLDATALOAD GT PUSH2 0x659 JUMPI PUSH3 0xF4240 PUSH1 0x44 CALLDATALOAD DUP2 PUSH1 0x44 CALLDATALOAD MUL DIV DUP2 EQ PUSH1 0x44 CALLDATALOAD ISZERO OR ISZERO PUSH2 0x645 JUMPI PUSH1 0x1 SLOAD PUSH2 0x33B SWAP2 PUSH1 0x44 CALLDATALOAD MUL PUSH2 0xEA5 JUMP JUMPDEST PUSH1 0x58 DUP4 DUP6 ADD ADD CALLDATALOAD LT PUSH2 0x600 JUMPI PUSH1 0x1 PUSH1 0x1 PUSH1 0xA0 SHL SUB DUP5 AND DUP6 MSTORE PUSH1 0x2 PUSH1 0x20 MSTORE PUSH1 0x40 DUP6 KECCAK256 DUP1 SLOAD SWAP1 PUSH1 0x0 NOT DUP3 EQ PUSH2 0x5EC JUMPI PUSH1 0x1 DUP3 ADD SWAP1 SSTORE PUSH1 0x40 MLOAD SWAP1 PUSH1 0x24 CALLDATALOAD PUSH1 0x20 DUP4 ADD MSTORE PUSH12 0xFFFFFFFFFFFFFFFFFFFFFFFF NOT DUP7 PUSH1 0x60 SHL AND PUSH1 0x40 DUP4 ADD MSTORE PUSH1 0x58 DUP5 DUP7 ADD ADD CALLDATALOAD PUSH1 0x54 DUP4 ADD MSTORE PUSH1 0x78 DUP5 DUP7 ADD ADD CALLDATALOAD PUSH1 0x74 DUP4 ADD MSTORE PUSH1 0x98 DUP5 DUP7 ADD ADD CALLDATALOAD PUSH1 0x94 DUP4 ADD MSTORE PUSH1 0xB4 DUP3 ADD MSTORE PUSH1 0xB4 DUP2 MSTORE DUP1 PUSH1 0xE0 DUP2 ADD LT PUSH8 0xFFFFFFFFFFFFFFFF PUSH1 0xE0 DUP4 ADD GT OR PUSH2 0x59C JUMPI PUSH2 0x426 SWAP2 DUP2 PUSH1 0xE0 PUSH2 0x41D SWAP4 ADD PUSH1 0x40 MSTORE PUSH1 0x20 DUP2 MLOAD SWAP2 ADD KECCAK256 PUSH32 0x19457468657265756D205369676E6564204D6573736167653A0A333200000000 DUP9 MSTORE PUSH1 0x1C MSTORE PUSH1 0x3C DUP8 KECCAK256 PUSH2 0xF2D JUMP JUMPDEST SWAP1 SWAP3 SWAP2 SWAP3 PUSH2 0xFED JUMP JUMPDEST PUSH1 0x1 PUSH1 0x1 PUSH1 0xA0 SHL SUB DUP5 DUP2 AND SWAP2 AND SUB PUSH2 0x5B2 JUMPI PUSH1 0x40 MLOAD PUSH4 0x23B872DD PUSH1 0xE0 SHL PUSH1 0x20 DUP3 ADD MSTORE PUSH1 0x1 PUSH1 0x1 PUSH1 0xA0 SHL SUB DUP5 AND PUSH1 0x24 DUP3 ADD MSTORE ADDRESS PUSH1 0x44 DUP3 ADD MSTORE DUP3 DUP3 ADD PUSH1 0x58 ADD CALLDATALOAD PUSH1 0x64 DUP1 DUP4 ADD SWAP2 SWAP1 SWAP2 MSTORE DUP2 MSTORE PUSH1 0xA0 DUP2 ADD SWAP1 PUSH8 0xFFFFFFFFFFFFFFFF DUP3 GT DUP2 DUP4 LT OR PUSH2 0x59C JUMPI PUSH2 0x4B8 SWAP1 DUP7 SWAP5 SWAP6 SWAP3 PUSH1 0x40 MSTORE PUSH32 0x0 PUSH2 0xEC5 JUMP JUMPDEST PUSH1 0x40 MLOAD SWAP1 PUSH1 0x1 DUP1 PUSH1 0xA0 SHL SUB DUP2 AND PUSH1 0x20 DUP4 ADD MSTORE PUSH1 0x58 DUP4 DUP7 ADD ADD CALLDATALOAD PUSH1 0x40 DUP4 ADD MSTORE PUSH1 0x44 CALLDATALOAD PUSH1 0x60 DUP4 ADD MSTORE PUSH1 0x60 DUP3 MSTORE PUSH2 0x4EB DUP3 PUSH2 0xE67 JUMP JUMPDEST PUSH32 0xAFE65894F5DC3EC01B36EB697AB05531317B716BE71D4669D818E0B0E774E030 PUSH1 0x60 PUSH1 0x40 MLOAD SWAP3 PUSH1 0x58 DUP7 DUP10 ADD ADD CALLDATALOAD DUP5 MSTORE PUSH1 0x44 CALLDATALOAD PUSH1 0x20 DUP6 ADD MSTORE PUSH1 0x24 CALLDATALOAD PUSH1 0x40 DUP6 ADD MSTORE PUSH1 0x1 DUP1 PUSH1 0xA0 SHL SUB AND SWAP3 LOG2 PUSH1 0x40 MLOAD SWAP4 DUP5 SWAP3 PUSH1 0x40 DUP5 MSTORE DUP3 MLOAD SWAP3 DUP4 PUSH1 0x40 DUP7 ADD MSTORE DUP6 JUMPDEST DUP5 DUP2 LT PUSH2 0x584 JUMPI POP POP PUSH1 0x78 SWAP1 PUSH1 0x60 SWAP6 DUP7 DUP6 DUP8 ADD ADD MSTORE PUSH1 0x98 DUP2 DUP5 ADD ADD CALLDATALOAD PUSH1 0xE0 SHL SWAP3 ADD ADD CALLDATALOAD PUSH1 0xA0 SHL OR PUSH1 0x20 DUP4 ADD MSTORE PUSH1 0x1F DUP1 NOT SWAP2 ADD AND DUP2 ADD SUB ADD SWAP1 RETURN JUMPDEST PUSH1 0x20 DUP3 DUP3 ADD DUP2 ADD MLOAD PUSH1 0x60 DUP11 DUP5 ADD ADD MSTORE DUP9 SWAP7 POP ADD PUSH2 0x54A JUMP JUMPDEST PUSH4 0x4E487B71 PUSH1 0xE0 SHL PUSH1 0x0 MSTORE PUSH1 0x41 PUSH1 0x4 MSTORE PUSH1 0x24 PUSH1 0x0 REVERT JUMPDEST PUSH1 0x40 MLOAD PUSH3 0x461BCD PUSH1 0xE5 SHL DUP2 MSTORE PUSH1 0x20 PUSH1 0x4 DUP3 ADD MSTORE PUSH1 0x12 PUSH1 0x24 DUP3 ADD MSTORE PUSH18 0x5369676E617475726520696E76616C696465 PUSH1 0x70 SHL PUSH1 0x44 DUP3 ADD MSTORE PUSH1 0x64 SWAP1 REVERT JUMPDEST PUSH4 0x4E487B71 PUSH1 0xE0 SHL DUP8 MSTORE PUSH1 0x11 PUSH1 0x4 MSTORE PUSH1 0x24 DUP8 REVERT JUMPDEST PUSH1 0x40 MLOAD PUSH3 0x461BCD PUSH1 0xE5 SHL DUP2 MSTORE PUSH1 0x20 PUSH1 0x4 DUP3 ADD MSTORE PUSH1 0x18 PUSH1 0x24 DUP3 ADD MSTORE PUSH32 0x4D6F6E74616E74205553444320696E737566666973616E740000000000000000 PUSH1 0x44 DUP3 ADD MSTORE PUSH1 0x64 SWAP1 REVERT JUMPDEST PUSH4 0x4E487B71 PUSH1 0xE0 SHL DUP7 MSTORE PUSH1 0x11 PUSH1 0x4 MSTORE PUSH1 0x24 DUP7 REVERT JUMPDEST PUSH1 0x40 MLOAD PUSH3 0x461BCD PUSH1 0xE5 SHL DUP2 MSTORE PUSH1 0x20 PUSH1 0x4 DUP3 ADD MSTORE PUSH1 0x1B PUSH1 0x24 DUP3 ADD MSTORE PUSH32 0x416C6C6F77616E6365205553444320696E737566666973616E74650000000000 PUSH1 0x44 DUP3 ADD MSTORE PUSH1 0x64 SWAP1 REVERT JUMPDEST SWAP1 POP PUSH1 0x20 DUP2 RETURNDATASIZE PUSH1 0x20 GT PUSH2 0x6CD JUMPI JUMPDEST DUP2 PUSH2 0x6B9 PUSH1 0x20 SWAP4 DUP4 PUSH2 0xE83 JUMP JUMPDEST DUP2 ADD SUB SLT PUSH2 0x6C8 JUMPI MLOAD CODESIZE PUSH2 0x305 JUMP JUMPDEST PUSH1 0x0 DUP1 REVERT JUMPDEST RETURNDATASIZE SWAP2 POP PUSH2 0x6AC JUMP JUMPDEST PUSH1 0x40 MLOAD RETURNDATASIZE DUP9 DUP3 RETURNDATACOPY RETURNDATASIZE SWAP1 REVERT JUMPDEST PUSH1 0x40 MLOAD PUSH3 0x461BCD PUSH1 0xE5 SHL DUP2 MSTORE PUSH1 0x20 PUSH1 0x4 DUP3 ADD MSTORE PUSH1 0x16 PUSH1 0x24 DUP3 ADD MSTORE PUSH22 0x14DBDB1919481554D110C81A5B9CDD59999A5CD85B9D PUSH1 0x52 SHL PUSH1 0x44 DUP3 ADD MSTORE PUSH1 0x64 SWAP1 REVERT JUMPDEST SWAP1 POP PUSH1 0x20 DUP2 RETURNDATASIZE PUSH1 0x20 GT PUSH2 0x748 JUMPI JUMPDEST DUP2 PUSH2 0x739 PUSH1 0x20 SWAP4 DUP4 PUSH2 0xE83 JUMP JUMPDEST DUP2 ADD SUB SLT PUSH2 0x6C8 JUMPI MLOAD CODESIZE PUSH2 0x299 JUMP JUMPDEST RETURNDATASIZE SWAP2 POP PUSH2 0x72C JUMP JUMPDEST PUSH1 0x40 MLOAD PUSH3 0x461BCD PUSH1 0xE5 SHL DUP2 MSTORE PUSH1 0x20 PUSH1 0x4 DUP3 ADD MSTORE PUSH1 0x11 PUSH1 0x24 DUP3 ADD MSTORE PUSH17 0x5061796D61737465723A20657870697265 PUSH1 0x78 SHL PUSH1 0x44 DUP3 ADD MSTORE PUSH1 0x64 SWAP1 REVERT JUMPDEST PUSH1 0x40 MLOAD PUSH3 0x461BCD PUSH1 0xE5 SHL DUP2 MSTORE PUSH1 0x20 PUSH1 0x4 DUP3 ADD MSTORE PUSH1 0x13 PUSH1 0x24 DUP3 ADD MSTORE PUSH19 0x14185E5B585CDD195C8E881D1C9BDC081D1BDD PUSH1 0x6A SHL PUSH1 0x44 DUP3 ADD MSTORE PUSH1 0x64 SWAP1 REVERT JUMPDEST DUP3 DUP1 REVERT JUMPDEST PUSH4 0x4E487B71 PUSH1 0xE0 SHL DUP8 MSTORE PUSH1 0x41 PUSH1 0x4 MSTORE PUSH1 0x24 DUP8 REVERT JUMPDEST DUP6 DUP1 REVERT JUMPDEST DUP4 DUP1 REVERT JUMPDEST POP DUP1 REVERT JUMPDEST DUP1 REVERT JUMPDEST POP CALLVALUE PUSH2 0x7E8 JUMPI PUSH1 0x20 CALLDATASIZE PUSH1 0x3 NOT ADD SLT PUSH2 0x7E8 JUMPI PUSH1 0x4 CALLDATALOAD PUSH1 0x1 PUSH1 0x1 PUSH1 0xA0 SHL SUB DUP2 DUP2 AND SWAP2 DUP3 SWAP1 SUB PUSH2 0x7C4 JUMPI PUSH2 0x81B PUSH2 0xDC7 JUMP JUMPDEST DUP2 ISZERO PUSH2 0x864 JUMPI PUSH1 0x0 SLOAD DUP3 PUSH12 0xFFFFFFFFFFFFFFFFFFFFFFFF PUSH1 0xA0 SHL DUP3 AND OR PUSH1 0x0 SSTORE AND PUSH32 0x8BE0079C531659141344CD1FD0A4F28419497F9722A3DAAFE3B4186F6B6457E0 PUSH1 0x0 DUP1 LOG3 DUP1 RETURN JUMPDEST PUSH1 0x40 MLOAD PUSH4 0x1E4FBDF7 PUSH1 0xE0 SHL DUP2 MSTORE PUSH1 0x4 DUP2 ADD DUP5 SWAP1 MSTORE PUSH1 0x24 SWAP1 REVERT JUMPDEST POP DUP1 PUSH1 0x3 NOT CALLDATASIZE ADD SLT PUSH2 0x7E8 JUMPI PUSH2 0x891 PUSH2 0xDC7 JUMP JUMPDEST DUP1 PUSH32 0x0 PUSH1 0x1 PUSH1 0x1 PUSH1 0xA0 SHL SUB AND DUP1 EXTCODESIZE ISZERO PUSH2 0x90A JUMPI DUP2 PUSH1 0x24 SWAP2 PUSH1 0x40 MLOAD SWAP3 DUP4 DUP1 SWAP3 PUSH4 0xB760FAF9 PUSH1 0xE0 SHL DUP3 MSTORE ADDRESS PUSH1 0x4 DUP4 ADD MSTORE CALLVALUE SWAP1 GAS CALL DUP1 ISZERO PUSH2 0x8FF JUMPI PUSH2 0x8EF JUMPI POP RETURN JUMPDEST PUSH2 0x8F8 SWAP1 PUSH2 0xE53 JUMP JUMPDEST PUSH2 0x7E8 JUMPI DUP1 RETURN JUMPDEST PUSH1 0x40 MLOAD RETURNDATASIZE DUP5 DUP3 RETURNDATACOPY RETURNDATASIZE SWAP1 REVERT JUMPDEST POP REVERT JUMPDEST POP CALLVALUE PUSH2 0x7E8 JUMPI DUP1 PUSH1 0x3 NOT CALLDATASIZE ADD SLT PUSH2 0x7E8 JUMPI PUSH1 0x20 PUSH1 0x1 SLOAD PUSH1 0x40 MLOAD SWAP1 DUP2 MSTORE RETURN JUMPDEST POP CALLVALUE PUSH2 0x7E8 JUMPI DUP1 PUSH1 0x3 NOT CALLDATASIZE ADD SLT PUSH2 0x7E8 JUMPI PUSH1 0x40 MLOAD PUSH4 0x70A08231 PUSH1 0xE0 SHL DUP2 MSTORE ADDRESS PUSH1 0x4 DUP3 ADD MSTORE SWAP1 PUSH1 0x20 DUP3 PUSH1 0x24 DUP2 PUSH32 0x0 PUSH1 0x1 PUSH1 0x1 PUSH1 0xA0 SHL SUB AND GAS STATICCALL SWAP1 DUP2 ISZERO PUSH2 0x9CC JUMPI SWAP1 PUSH2 0x99A JUMPI JUMPDEST PUSH1 0x20 SWAP1 PUSH1 0x40 MLOAD SWAP1 DUP2 MSTORE RETURN JUMPDEST POP PUSH1 0x20 DUP2 RETURNDATASIZE DUP3 GT PUSH2 0x9C4 JUMPI JUMPDEST DUP2 PUSH2 0x9B3 PUSH1 0x20 SWAP4 DUP4 PUSH2 0xE83 JUMP JUMPDEST DUP2 ADD SUB SLT PUSH2 0x6C8 JUMPI PUSH1 0x20 SWAP1 MLOAD PUSH2 0x98F JUMP JUMPDEST RETURNDATASIZE SWAP2 POP PUSH2 0x9A6 JUMP JUMPDEST PUSH1 0x40 MLOAD SWAP1 RETURNDATASIZE SWAP1 DUP3 RETURNDATACOPY RETURNDATASIZE SWAP1 REVERT JUMPDEST POP CALLVALUE PUSH2 0x7E8 JUMPI PUSH1 0x20 CALLDATASIZE PUSH1 0x3 NOT ADD SLT PUSH2 0x7E8 JUMPI PUSH1 0x4 CALLDATALOAD PUSH2 0x9F5 PUSH2 0xDC7 JUMP JUMPDEST DUP1 ISZERO PUSH2 0xA35 JUMPI PUSH1 0x40 PUSH32 0xE335B031F0EF293EB2AE4BB1453EF1BA92FFC180905BF925E29290DD546C1661 SWAP2 PUSH1 0x1 SLOAD SWAP1 DUP1 PUSH1 0x1 SSTORE DUP3 MLOAD SWAP2 DUP3 MSTORE PUSH1 0x20 DUP3 ADD MSTORE LOG1 DUP1 RETURN JUMPDEST PUSH1 0x40 MLOAD PUSH3 0x461BCD PUSH1 0xE5 SHL DUP2 MSTORE PUSH1 0x20 PUSH1 0x4 DUP3 ADD MSTORE PUSH1 0xD PUSH1 0x24 DUP3 ADD MSTORE PUSH13 0x5461757820696E76616C696465 PUSH1 0x98 SHL PUSH1 0x44 DUP3 ADD MSTORE PUSH1 0x64 SWAP1 REVERT JUMPDEST POP CALLVALUE PUSH2 0x7E8 JUMPI DUP1 PUSH1 0x3 NOT CALLDATASIZE ADD SLT PUSH2 0x7E8 JUMPI PUSH1 0x40 MLOAD PUSH32 0x0 PUSH1 0x1 PUSH1 0x1 PUSH1 0xA0 SHL SUB AND DUP2 MSTORE PUSH1 0x20 SWAP1 RETURN JUMPDEST POP CALLVALUE PUSH2 0x7E8 JUMPI DUP1 PUSH1 0x3 NOT CALLDATASIZE ADD SLT PUSH2 0x7E8 JUMPI PUSH1 0x20 PUSH1 0x40 MLOAD PUSH1 0x14 DUP2 MSTORE RETURN JUMPDEST POP CALLVALUE PUSH2 0x7E8 JUMPI PUSH1 0x60 CALLDATASIZE PUSH1 0x3 NOT ADD SLT PUSH2 0x7E8 JUMPI PUSH1 0x4 CALLDATALOAD PUSH1 0x3 DUP2 LT ISZERO PUSH2 0x7E4 JUMPI PUSH1 0x24 CALLDATALOAD PUSH8 0xFFFFFFFFFFFFFFFF DUP1 DUP3 GT PUSH2 0x7E0 JUMPI CALLDATASIZE PUSH1 0x23 DUP4 ADD SLT ISZERO PUSH2 0x7E0 JUMPI DUP2 PUSH1 0x4 ADD CALLDATALOAD SWAP1 DUP2 GT PUSH2 0x7E0 JUMPI CALLDATASIZE PUSH1 0x24 DUP3 DUP5 ADD ADD GT PUSH2 0x7E0 JUMPI PUSH2 0xB30 SWAP3 PUSH1 0x24 PUSH1 0x44 CALLDATALOAD SWAP4 ADD SWAP1 PUSH2 0x1072 JUMP JUMPDEST DUP1 RETURN JUMPDEST POP CALLVALUE PUSH2 0x7E8 JUMPI DUP1 PUSH1 0x3 NOT CALLDATASIZE ADD SLT PUSH2 0x7E8 JUMPI SLOAD PUSH1 0x40 MLOAD PUSH1 0x1 PUSH1 0x1 PUSH1 0xA0 SHL SUB SWAP1 SWAP2 AND DUP2 MSTORE PUSH1 0x20 SWAP1 RETURN JUMPDEST POP CALLVALUE PUSH2 0x7E8 JUMPI PUSH1 0x20 CALLDATASIZE PUSH1 0x3 NOT ADD SLT PUSH2 0x7E8 JUMPI PUSH3 0xF4240 PUSH1 0x4 CALLDATALOAD DUP2 DUP2 MUL SWAP3 SWAP2 DUP2 ISZERO SWAP2 DUP5 DIV EQ OR ISZERO PUSH2 0xB9B JUMPI PUSH1 0x20 PUSH2 0xB93 DUP4 PUSH1 0x1 SLOAD SWAP1 PUSH2 0xEA5 JUMP JUMPDEST PUSH1 0x40 MLOAD SWAP1 DUP2 MSTORE RETURN JUMPDEST PUSH4 0x4E487B71 PUSH1 0xE0 SHL DUP2 MSTORE PUSH1 0x11 PUSH1 0x4 MSTORE PUSH1 0x24 SWAP1 REVERT JUMPDEST POP CALLVALUE PUSH2 0x7E8 JUMPI PUSH1 0x20 CALLDATASIZE PUSH1 0x3 NOT ADD SLT PUSH2 0x7E8 JUMPI PUSH1 0x4 CALLDATALOAD PUSH1 0x1 PUSH1 0x1 PUSH1 0xA0 SHL SUB DUP2 AND SWAP1 DUP2 SWAP1 SUB PUSH2 0x7E4 JUMPI DUP2 PUSH1 0x40 SWAP2 PUSH1 0x20 SWAP4 MSTORE PUSH1 0x2 DUP4 MSTORE KECCAK256 SLOAD PUSH1 0x40 MLOAD SWAP1 DUP2 MSTORE RETURN JUMPDEST POP CALLVALUE PUSH2 0x7E8 JUMPI DUP1 PUSH1 0x3 NOT CALLDATASIZE ADD SLT PUSH2 0x7E8 JUMPI PUSH2 0xC05 PUSH2 0xDC7 JUMP JUMPDEST PUSH1 0x0 DUP1 SLOAD PUSH1 0x1 PUSH1 0x1 PUSH1 0xA0 SHL SUB NOT DUP2 AND DUP3 SSTORE PUSH1 0x1 PUSH1 0x1 PUSH1 0xA0 SHL SUB AND PUSH32 0x8BE0079C531659141344CD1FD0A4F28419497F9722A3DAAFE3B4186F6B6457E0 DUP3 DUP1 LOG3 DUP1 RETURN JUMPDEST POP CALLVALUE PUSH2 0x7E8 JUMPI DUP1 PUSH1 0x3 NOT CALLDATASIZE ADD SLT PUSH2 0x7E8 JUMPI PUSH1 0x20 PUSH1 0x40 MLOAD PUSH1 0x54 DUP2 MSTORE RETURN JUMPDEST POP CALLVALUE PUSH2 0x7E8 JUMPI PUSH1 0x20 CALLDATASIZE PUSH1 0x3 NOT ADD SLT PUSH2 0x7E8 JUMPI PUSH2 0xC7C PUSH2 0xDC7 JUMP JUMPDEST DUP1 SLOAD PUSH2 0xB30 SWAP1 PUSH1 0x4 CALLDATALOAD SWAP1 PUSH1 0x1 PUSH1 0x1 PUSH1 0xA0 SHL SUB AND PUSH32 0x0 PUSH2 0x1178 JUMP JUMPDEST POP CALLVALUE PUSH2 0x7E8 JUMPI DUP1 PUSH1 0x3 NOT CALLDATASIZE ADD SLT PUSH2 0x7E8 JUMPI PUSH1 0x40 MLOAD PUSH32 0x0 PUSH1 0x1 PUSH1 0x1 PUSH1 0xA0 SHL SUB AND DUP2 MSTORE PUSH1 0x20 SWAP1 RETURN JUMPDEST POP CALLVALUE PUSH2 0x7E8 JUMPI PUSH1 0x20 CALLDATASIZE PUSH1 0x3 NOT ADD SLT PUSH2 0x7E8 JUMPI PUSH2 0xD14 PUSH2 0xDC7 JUMP JUMPDEST DUP1 SLOAD DUP2 SWAP1 PUSH1 0x1 PUSH1 0x1 PUSH1 0xA0 SHL SUB SWAP1 DUP2 AND SWAP1 PUSH32 0x0 AND DUP1 EXTCODESIZE ISZERO PUSH2 0xD89 JUMPI PUSH1 0x44 DUP4 SWAP3 PUSH1 0x40 MLOAD SWAP5 DUP6 SWAP4 DUP5 SWAP3 PUSH4 0x40B850F PUSH1 0xE3 SHL DUP5 MSTORE PUSH1 0x4 DUP5 ADD MSTORE PUSH1 0x4 CALLDATALOAD PUSH1 0x24 DUP5 ADD MSTORE GAS CALL DUP1 ISZERO PUSH2 0x8FF JUMPI PUSH2 0xD80 JUMPI POP DUP1 RETURN JUMPDEST PUSH2 0xB30 SWAP1 PUSH2 0xE53 JUMP JUMPDEST POP POP REVERT JUMPDEST SWAP1 POP CALLVALUE PUSH2 0x7E4 JUMPI PUSH1 0x20 CALLDATASIZE PUSH1 0x3 NOT ADD SLT PUSH2 0x7E4 JUMPI PUSH1 0x4 CALLDATALOAD PUSH1 0x1 PUSH1 0x1 PUSH1 0xA0 SHL SUB DUP2 AND SWAP1 DUP2 SWAP1 SUB PUSH2 0x7C4 JUMPI DUP3 PUSH1 0x40 SWAP2 PUSH1 0x20 SWAP5 MSTORE PUSH1 0x2 DUP5 MSTORE KECCAK256 SLOAD DUP2 MSTORE RETURN JUMPDEST PUSH1 0x0 SLOAD PUSH1 0x1 PUSH1 0x1 PUSH1 0xA0 SHL SUB AND CALLER SUB PUSH2 0xDDB JUMPI JUMP JUMPDEST PUSH1 0x40 MLOAD PUSH4 0x118CDAA7 PUSH1 0xE0 SHL DUP2 MSTORE CALLER PUSH1 0x4 DUP3 ADD MSTORE PUSH1 0x24 SWAP1 REVERT JUMPDEST ISZERO PUSH2 0xDFA JUMPI JUMP JUMPDEST PUSH1 0x40 MLOAD PUSH3 0x461BCD PUSH1 0xE5 SHL DUP2 MSTORE PUSH1 0x20 PUSH1 0x4 DUP3 ADD MSTORE PUSH1 0x18 PUSH1 0x24 DUP3 ADD MSTORE PUSH32 0x5365756C20456E747279506F696E74206175746F726973650000000000000000 PUSH1 0x44 DUP3 ADD MSTORE PUSH1 0x64 SWAP1 REVERT JUMPDEST CALLDATALOAD SWAP1 PUSH1 0x1 PUSH1 0x1 PUSH1 0xA0 SHL SUB DUP3 AND DUP3 SUB PUSH2 0x6C8 JUMPI JUMP JUMPDEST PUSH8 0xFFFFFFFFFFFFFFFF DUP2 GT PUSH2 0x59C JUMPI PUSH1 0x40 MSTORE JUMP JUMPDEST PUSH1 0x80 DUP2 ADD SWAP1 DUP2 LT PUSH8 0xFFFFFFFFFFFFFFFF DUP3 GT OR PUSH2 0x59C JUMPI PUSH1 0x40 MSTORE JUMP JUMPDEST SWAP1 PUSH1 0x1F DUP1 NOT SWAP2 ADD AND DUP2 ADD SWAP1 DUP2 LT PUSH8 0xFFFFFFFFFFFFFFFF DUP3 GT OR PUSH2 0x59C JUMPI PUSH1 0x40 MSTORE JUMP JUMPDEST DUP2 ISZERO PUSH2 0xEAF JUMPI DIV SWAP1 JUMP JUMPDEST PUSH4 0x4E487B71 PUSH1 0xE0 SHL PUSH1 0x0 MSTORE PUSH1 0x12 PUSH1 0x4 MSTORE PUSH1 0x24 PUSH1 0x0 REVERT JUMPDEST SWAP1 PUSH1 0x0 PUSH1 0x20 SWAP2 DUP3 DUP2 MLOAD SWAP2 ADD DUP3 DUP6 GAS CALL ISZERO PUSH2 0xF21 JUMPI PUSH1 0x0 MLOAD RETURNDATASIZE PUSH2 0xF18 JUMPI POP PUSH1 0x1 PUSH1 0x1 PUSH1 0xA0 SHL SUB DUP2 AND EXTCODESIZE ISZERO JUMPDEST PUSH2 0xEF6 JUMPI POP JUMP JUMPDEST PUSH1 0x40 MLOAD PUSH4 0x5274AFE7 PUSH1 0xE0 SHL DUP2 MSTORE PUSH1 0x1 PUSH1 0x1 PUSH1 0xA0 SHL SUB SWAP1 SWAP2 AND PUSH1 0x4 DUP3 ADD MSTORE PUSH1 0x24 SWAP1 REVERT JUMPDEST PUSH1 0x1 EQ ISZERO PUSH2 0xEEF JUMP JUMPDEST PUSH1 0x40 MLOAD RETURNDATASIZE PUSH1 0x0 DUP3 RETURNDATACOPY RETURNDATASIZE SWAP1 REVERT JUMPDEST DUP2 MLOAD SWAP2 SWAP1 PUSH1 0x41 DUP4 SUB PUSH2 0xF5E JUMPI PUSH2 0xF57 SWAP3 POP PUSH1 0x20 DUP3 ADD MLOAD SWAP1 PUSH1 0x60 PUSH1 0x40 DUP5 ADD MLOAD SWAP4 ADD MLOAD PUSH1 0x0 BYTE SWAP1 PUSH2 0xF69 JUMP JUMPDEST SWAP2 SWAP3 SWAP1 SWAP2 SWAP1 JUMP JUMPDEST POP POP PUSH1 0x0 SWAP2 PUSH1 0x2 SWAP2 SWAP1 JUMP JUMPDEST SWAP2 SWAP1 PUSH32 0x7FFFFFFFFFFFFFFFFFFFFFFFFFFFFFFF5D576E7357A4501DDFE92F46681B20A0 DUP5 GT PUSH2 0xFE1 JUMPI SWAP3 PUSH1 0x20 SWAP3 SWAP2 PUSH1 0xFF PUSH1 0x80 SWAP6 PUSH1 0x40 MLOAD SWAP5 DUP6 MSTORE AND DUP5 DUP5 ADD MSTORE PUSH1 0x40 DUP4 ADD MSTORE PUSH1 0x60 DUP3 ADD MSTORE PUSH1 0x0 SWAP3 DUP4 SWAP2 DUP3 DUP1 MSTORE PUSH1 0x1 GAS STATICCALL ISZERO PUSH2 0x9CC JUMPI DUP1 MLOAD PUSH1 0x1 PUSH1 0x1 PUSH1 0xA0 SHL SUB DUP2 AND ISZERO PUSH2 0xFD8 JUMPI SWAP2 DUP2 SWAP1 JUMP JUMPDEST POP DUP1 SWAP2 PUSH1 0x1 SWAP2 SWAP1 JUMP JUMPDEST POP POP POP PUSH1 0x0 SWAP2 PUSH1 0x3 SWAP2 SWAP1 JUMP JUMPDEST PUSH1 0x4 DUP2 LT ISZERO PUSH2 0x105C JUMPI DUP1 PUSH2 0xFFF JUMPI POP POP JUMP JUMPDEST PUSH1 0x1 DUP2 SUB PUSH2 0x1019 JUMPI PUSH1 0x40 MLOAD PUSH4 0xF645EEDF PUSH1 0xE0 SHL DUP2 MSTORE PUSH1 0x4 SWAP1 REVERT JUMPDEST PUSH1 0x2 DUP2 SUB PUSH2 0x103A JUMPI PUSH1 0x40 MLOAD PUSH4 0xFCE698F7 PUSH1 0xE0 SHL DUP2 MSTORE PUSH1 0x4 DUP2 ADD DUP4 SWAP1 MSTORE PUSH1 0x24 SWAP1 REVERT JUMPDEST PUSH1 0x3 EQ PUSH2 0x1044 JUMPI POP JUMP JUMPDEST PUSH1 0x24 SWAP1 PUSH1 0x40 MLOAD SWAP1 PUSH4 0x35E2F383 PUSH1 0xE2 SHL DUP3 MSTORE PUSH1 0x4 DUP3 ADD MSTORE REVERT JUMPDEST PUSH4 0x4E487B71 PUSH1 0xE0 SHL PUSH1 0x0 MSTORE PUSH1 0x21 PUSH1 0x4 MSTORE PUSH1 0x24 PUSH1 0x0 REVERT JUMPDEST SWAP3 SWAP1 SWAP2 PUSH1 0x1 PUSH1 0x1 PUSH1 0xA0 SHL SUB SWAP1 PUSH1 0x60 SWAP1 DUP5 SWAP1 PUSH2 0x10B0 CALLER PUSH32 0x0 DUP7 AND EQ PUSH2 0xDF3 JUMP JUMPDEST DUP2 ADD SUB SLT PUSH2 0x6C8 JUMPI PUSH1 0x20 PUSH2 0x10C3 DUP5 PUSH2 0xE3F JUMP JUMPDEST SWAP4 ADD CALLDATALOAD SWAP3 AND SWAP3 PUSH1 0x3 DUP2 LT ISZERO PUSH2 0x105C JUMPI PUSH1 0x2 EQ PUSH2 0x1151 JUMPI PUSH3 0xF4240 SWAP1 DUP2 DUP2 MUL SWAP2 DUP2 DUP4 DIV EQ SWAP1 ISZERO OR ISZERO PUSH2 0x113B JUMPI PUSH1 0x1 SLOAD PUSH2 0x10FA SWAP2 PUSH2 0xEA5 JUMP JUMPDEST DUP1 DUP3 GT PUSH2 0x1106 JUMPI POP POP POP JUMP JUMPDEST DUP2 SUB SWAP1 DUP2 GT PUSH2 0x113B JUMPI PUSH2 0x1139 SWAP2 PUSH32 0x0 PUSH2 0x1178 JUMP JUMPDEST JUMP JUMPDEST PUSH4 0x4E487B71 PUSH1 0xE0 SHL PUSH1 0x0 MSTORE PUSH1 0x11 PUSH1 0x4 MSTORE PUSH1 0x24 PUSH1 0x0 REVERT JUMPDEST POP PUSH2 0x1139 SWAP2 PUSH32 0x0 JUMPDEST PUSH1 0x40 MLOAD PUSH4 0xA9059CBB PUSH1 0xE0 SHL PUSH1 0x20 DUP3 ADD MSTORE PUSH1 0x1 PUSH1 0x1 PUSH1 0xA0 SHL SUB SWAP1 SWAP3 AND PUSH1 0x24 DUP4 ADD MSTORE PUSH1 0x44 DUP1 DUP4 ADD SWAP4 SWAP1 SWAP4 MSTORE SWAP2 DUP2 MSTORE PUSH2 0x1139 SWAP2 PUSH2 0x11B1 DUP3 PUSH2 0xE67 JUMP JUMPDEST PUSH2 0xEC5 JUMP INVALID LOG2 PUSH5 0x6970667358 0x22 SLT KECCAK256 0xA9 0x1F 0xF8 0xCB 0x4A 0xC9 STATICCALL DUP11 DUP3 PUSH31 0x1458B7B5BFFE2125ABE6FB1B0DF5411D9C3C56B1B78564736F6C6343000814 STOP CALLER "},"methodIdentifiers":{"SIGNATURE_OFFSET()":"6c7e9b3c","VALID_TIMESTAMP_OFFSET()":"ac2db91a","calculateUsdcCost(uint256)":"8aeb3ce7","deposit()":"d0e30db0","entryPoint()":"b0d691fe","getDeposit()":"c399ec88","getNonce(address)":"2d0335ab","nonces(address)":"7ecebe00","owner()":"8da5cb5b","postOp(uint8,bytes,uint256)":"a9a23409","renounceOwnership()":"715018a6","transferOwnership(address)":"f2fde38b","updateUsdcToEthRate(uint256)":"b95bab66","usdc()":"3e413bee","usdcToEthRate()":"ce2605af","validatePaymasterUserOp((address,uint256,bytes,bytes,uint256,uint256,uint256,uint256,uint256,bytes,bytes),bytes32,uint256)":"f465c77e","withdrawDeposit(uint256)":"33289a46","withdrawUsdc(uint256)":"5b06dece"}}}}}