{"contracts/CirclePaymaster.sol":{"CirclePaymaster":{"abi":[{"inputs":[{"internalType":"contract IEntryPoint","name":"_entryPoint","type":"address"},{"internalType":"contract IERC20","name":"_usdc","type":"address"},{"internalType":"address","name":"_owner","type":"address"}],"stateMutability":"nonpayable","type":"constructor"},{"inputs":[{"internalType":"address","name":"owner","type":"address"}],"name":"OwnableInvalidOwner","type":"error"},{"inputs":[{"internalType":"address","name":"account","type":"address"}],"name":"OwnableUnauthorizedAccount","type":"error"},{"inputs":[{"internalType":"address","name":"token","type":"address"}],"name":"SafeERC20FailedOperation","type":"error"},{"anonymous":false,"inputs":[{"indexed":true,"internalType":"address","name":"previousOwner","type":"address"},{"indexed":true,"internalType":"address","name":"newOwner","type":"address"}],"name":"OwnershipTransferred","type":"event"},{"anonymous":false,"inputs":[{"indexed":false,"internalType":"uint256","name":"oldRate","type":"uint256"},{"indexed":false,"internalType":"uint256","name":"newRate","type":"uint256"}],"name":"UsdcToEthRateUpdated","type":"event"},{"anonymous":false,"inputs":[{"indexed":true,"internalType":"address","name":"user","type":"address"},{"indexed":false,"internalType":"uint256","name":"usdcAmount","type":"uint256"},{"indexed":false,"internalType":"uint256","name":"ethAmount","type":"uint256"},{"indexed":false,"internalType":"bytes32","name":"userOpHash","type":"bytes32"}],"name":"UserOperationSponsored","type":"event"},{"inputs":[{"internalType":"uint256","name":"ethAmount","type":"uint256"}],"name":"calculateUsdcCost","outputs":[{"internalType":"uint256","name":"","type":"uint256"}],"stateMutability":"view","type":"function"},{"inputs":[],"name":"deposit","outputs":[],"stateMutability":"payable","type":"function"},{"inputs":[],"name":"entryPoint","outputs":[{"internalType":"contract IEntryPoint","name":"","type":"address"}],"stateMutability":"view","type":"function"},{"inputs":[],"name":"getDeposit","outputs":[{"internalType":"uint256","name":"","type":"uint256"}],"stateMutability":"view","type":"function"},{"inputs":[],"name":"owner","outputs":[{"internalType":"address","name":"","type":"address"}],"stateMutability":"view","type":"function"},{"inputs":[{"internalType":"enum IPaymaster.PostOpMode","name":"mode","type":"uint8"},{"internalType":"bytes","name":"context","type":"bytes"},{"internalType":"uint256","name":"actualGasCost","type":"uint256"}],"name":"postOp","outputs":[],"stateMutability":"nonpayable","type":"function"},{"inputs":[],"name":"renounceOwnership","outputs":[],"stateMutability":"nonpayable","type":"function"},{"inputs":[{"internalType":"address","name":"newOwner","type":"address"}],"name":"transferOwnership","outputs":[],"stateMutability":"nonpayable","type":"function"},{"inputs":[{"internalType":"uint256","name":"newRate","type":"uint256"}],"name":"updateUsdcToEthRate","outputs":[],"stateMutability":"nonpayable","type":"function"},{"inputs":[],"name":"usdc","outputs":[{"internalType":"contract IERC20","name":"","type":"address"}],"stateMutability":"view","type":"function"},{"inputs":[],"name":"usdcToEthRate","outputs":[{"internalType":"uint256","name":"","type":"uint256"}],"stateMutability":"view","type":"function"},{"inputs":[{"components":[{"internalType":"address","name":"sender","type":"address"},{"internalType":"uint256","name":"nonce","type":"uint256"},{"internalType":"bytes","name":"initCode","type":"bytes"},{"internalType":"bytes","name":"callData","type":"bytes"},{"internalType":"uint256","name":"callGasLimit","type":"uint256"},{"internalType":"uint256","name":"verificationGasLimit","type":"uint256"},{"internalType":"uint256","name":"preVerificationGas","type":"uint256"},{"internalType":"uint256","name":"maxFeePerGas","type":"uint256"},{"internalType":"uint256","name":"maxPriorityFeePerGas","type":"uint256"},{"internalType":"bytes","name":"paymasterAndData","type":"bytes"},{"internalType":"bytes","name":"signature","type":"bytes"}],"internalType":"struct UserOperation","name":"userOp","type":"tuple"},{"internalType":"bytes32","name":"userOpHash","type":"bytes32"},{"internalType":"uint256","name":"maxCost","type":"uint256"}],"name":"validatePaymasterUserOp","outputs":[{"internalType":"bytes","name":"context","type":"bytes"},{"internalType":"uint256","name":"validationData","type":"uint256"}],"stateMutability":"nonpayable","type":"function"},{"inputs":[{"internalType":"uint256","name":"amount","type":"uint256"}],"name":"withdrawDeposit","outputs":[],"stateMutability":"nonpayable","type":"function"},{"inputs":[{"internalType":"uint256","name":"amount","type":"uint256"}],"name":"withdrawUsdc","outputs":[],"stateMutability":"nonpayable","type":"function"}],"evm":{"bytecode":{"linkReferences":{},"object":"60c03461013a57601f610d9438819003918201601f19168301916001600160401b0383118484101761013f5780849260609460405283398101031261013a5780516001600160a01b039190828116810361013a57602082015191838316830361013a576040015183811680910361013a57801561012157600080546001600160a01b03198116831782556040519516907f8be0079c531659141344cd1fd0a4f28419497f9722a3daafe3b4186f6b6457e09080a36608e1bc9bf0400060015560805260a052610c3e90816101568239608051818181610104015281816104c40152818161058d015281816106b2015281816108dd0152610ac1015260a0518181816101690152818161084e0152818161088601528181610b4d0152610b900152f35b604051631e4fbdf760e01b815260006004820152602490fd5b600080fd5b634e487b7160e01b600052604160045260246000fdfe6040608081526004908136101561001557600080fd5b600090813560e01c806333289a46146108b55780633e413bee146108725780635b06dece1461081f578063715018a6146107c55780638aeb3ce7146107715780638da5cb5b1461074a578063a9a23409146106e1578063b0d691fe1461069e578063b95bab661461060d578063c399ec8814610560578063ce2605af14610542578063d0e30db0146104ab578063f2fde38b146104125763f465c77e146100bb57600080fd5b346104075760609060031992828436011261040f5784359367ffffffffffffffff9081861161040b5761016090863603011261040757604435956001600160a01b039561012b337f0000000000000000000000000000000000000000000000000000000000000000891614610971565b8101359186831680930361040357620f42408089029089820414891517156103f057600154610159916109bd565b91620186a083018093116103dd577f0000000000000000000000000000000000000000000000000000000000000000978816978651926370a0823160e01b845285838501526020996024948b818781855afa9081156103d3579087918a916103a2575b5010610367578a6044918a5192838092636eb1769f60e11b82528b89830152308a8301525afa90811561035d579086918991610327575b50106102e55787516323b872dd60e01b8b820152848101879052306044820152606480820187905281529260a08401918211848310176102d157507fafe65894f5dc3ec01b36eb697ab05531317b716be71d4669d818e0b0e774e030949289949261025f928a52610a45565b865199858a8c015282888c015280848c0152838b5261027d8b610a07565b8751928352898301523586820152a281519382855285518093860152815b8381106102be57508483018401829052840152601f01601f191682018290030190f35b868101820151868201860152810161029b565b60418591634e487b7160e01b600052526000fd5b875162461bcd60e51b81528084018b9052601b818601527f416c6c6f77616e6365205553444320696e737566666973616e746500000000006044820152606490fd5b8092508c8092503d8311610356575b6103408183610a23565b8101031261035157859051386101f3565b600080fd5b503d610336565b89513d8a823e3d90fd5b885162461bcd60e51b81528085018c90526016818701527514dbdb1919481554d110c81a5b9cdd59999a5cd85b9d60521b6044820152606490fd5b8092508d8092503d83116103cc575b6103bb8183610a23565b8101031261035157869051386101bc565b503d6103b1565b8a513d8b823e3d90fd5b634e487b7160e01b855260119052602484fd5b634e487b7160e01b855260118352602485fd5b8380fd5b5080fd5b8280fd5b80fd5b5082903461040b57602036600319011261040b576001600160a01b038235818116939192908490036104a757610446610945565b8315610491575050600054826bffffffffffffffffffffffff60a01b821617600055167f8be0079c531659141344cd1fd0a4f28419497f9722a3daafe3b4186f6b6457e0600080a380f35b51631e4fbdf760e01b8152908101849052602490fd5b8480fd5b509181928260031936011261053e576104c2610945565b7f00000000000000000000000000000000000000000000000000000000000000006001600160a01b031691823b15610539578390602483518095819363b760faf960e01b8352309083015234905af190811561053057506105205750f35b610529906109dd565b61040f5780f35b513d84823e3d90fd5b505050fd5b5050fd5b50346104075781600319360112610407576020906001549051908152f35b503461040757816003193601126104075780516370a0823160e01b815230938101939093526020836024817f00000000000000000000000000000000000000000000000000000000000000006001600160a01b03165afa91821561060257916105ce575b6020925051908152f35b90506020823d82116105fa575b816105e860209383610a23565b810103126103515760209151906105c4565b3d91506105db565b9051903d90823e3d90fd5b50823461040b57602036600319011261040b5780359061062b610945565b811561066b5750907fe335b031f0ef293eb2ae4bb1453ef1ba92ffc180905bf925e29290dd546c166191600154908060015582519182526020820152a180f35b606490602084519162461bcd60e51b8352820152600d60248201526c5461757820696e76616c69646560981b6044820152fd5b5034610407578160031936011261040757517f00000000000000000000000000000000000000000000000000000000000000006001600160a01b03168152602090f35b82843461040757606036600319011261040757803590600382101561040b576024359067ffffffffffffffff908183116104a757366023840112156104a75782013590811161040357366024828401011161040357610747926024604435930190610aad565b80f35b5034610407578160031936011261040757905490516001600160a01b039091168152602090f35b50903461040f57602036600319011261040f57620f42408335818102949181159186041417156107b2576020836107ab86600154906109bd565b9051908152f35b634e487b7160e01b825260119052602490fd5b823461040f578060031936011261040f576107de610945565b600080546001600160a01b0319811682556001600160a01b03167f8be0079c531659141344cd1fd0a4f28419497f9722a3daafe3b4186f6b6457e08280a380f35b828434610407576020366003190112610407576107479061083e610945565b82549035906001600160a01b03167f0000000000000000000000000000000000000000000000000000000000000000610bca565b5034610407578160031936011261040757517f00000000000000000000000000000000000000000000000000000000000000006001600160a01b03168152602090f35b5082903461040b57602036600319011261040b576108d1610945565b82546001600160a01b037f00000000000000000000000000000000000000000000000000000000000000008116938592909116843b1561040b57604490838551968794859363040b850f60e31b8552818501523560248401525af1908115610530575061093c575080f35b610747906109dd565b6000546001600160a01b0316330361095957565b60405163118cdaa760e01b8152336004820152602490fd5b1561097857565b60405162461bcd60e51b815260206004820152601860248201527f5365756c20456e747279506f696e74206175746f7269736500000000000000006044820152606490fd5b81156109c7570490565b634e487b7160e01b600052601260045260246000fd5b67ffffffffffffffff81116109f157604052565b634e487b7160e01b600052604160045260246000fd5b6080810190811067ffffffffffffffff8211176109f157604052565b90601f8019910116810190811067ffffffffffffffff8211176109f157604052565b906000602091828151910182855af115610aa1576000513d610a9857506001600160a01b0381163b155b610a765750565b604051635274afe760e01b81526001600160a01b039091166004820152602490fd5b60011415610a6f565b6040513d6000823e3d90fd5b91929060608160018060a01b0395610ae8877f0000000000000000000000000000000000000000000000000000000000000000163314610971565b810103126103515780359384168094036103515760200135916003811015610bb457600214610b8957620f424090818102918183041490151715610b7357600154610b32916109bd565b808211610b3e57505050565b8103908111610b7357610b71917f0000000000000000000000000000000000000000000000000000000000000000610bca565b565b634e487b7160e01b600052601160045260246000fd5b50610b71917f0000000000000000000000000000000000000000000000000000000000000000610bca565b634e487b7160e01b600052602160045260246000fd5b60405163a9059cbb60e01b60208201526001600160a01b039092166024830152604480830193909352918152610b7191610c0382610a07565b610a4556fea2646970667358221220a5b9e67f5d7f22a3c9be5b98611fa249cb5da6d42a6edbf9031a2563bb22ef7464736f6c63430008140033","opcodes":"PUSH1 0xC0 CALLVALUE PUSH2 0x13A JUMPI PUSH1 0x1F PUSH2 0xD94 CODESIZE DUP2 SWAP1 SUB SWAP2 DUP3 ADD PUSH1 0x1F NOT AND DUP4 ADD SWAP2 PUSH1 0x1 PUSH1 0x1 PUSH1 0x40 SHL SUB DUP4 GT DUP5 DUP5 LT OR PUSH2 0x13F JUMPI DUP1 DUP5 SWAP3 PUSH1 0x60 SWAP5 PUSH1 0x40 MSTORE DUP4 CODECOPY DUP2 ADD SUB SLT PUSH2 0x13A JUMPI DUP1 MLOAD PUSH1 0x1 PUSH1 0x1 PUSH1 0xA0 SHL SUB SWAP2 SWAP1 DUP3 DUP2 AND DUP2 SUB PUSH2 0x13A JUMPI PUSH1 0x20 DUP3 ADD MLOAD SWAP2 DUP4 DUP4 AND DUP4 SUB PUSH2 0x13A JUMPI PUSH1 0x40 ADD MLOAD DUP4 DUP2 AND DUP1 SWAP2 SUB PUSH2 0x13A JUMPI DUP1 ISZERO PUSH2 0x121 JUMPI PUSH1 0x0 DUP1 SLOAD PUSH1 0x1 PUSH1 0x1 PUSH1 0xA0 SHL SUB NOT DUP2 AND DUP4 OR DUP3 SSTORE PUSH1 0x40 MLOAD SWAP6 AND SWAP1 PUSH32 0x8BE0079C531659141344CD1FD0A4F28419497F9722A3DAAFE3B4186F6B6457E0 SWAP1 DUP1 LOG3 PUSH7 0x8E1BC9BF04000 PUSH1 0x1 SSTORE PUSH1 0x80 MSTORE PUSH1 0xA0 MSTORE PUSH2 0xC3E SWAP1 DUP2 PUSH2 0x156 DUP3 CODECOPY PUSH1 0x80 MLOAD DUP2 DUP2 DUP2 PUSH2 0x104 ADD MSTORE DUP2 DUP2 PUSH2 0x4C4 ADD MSTORE DUP2 DUP2 PUSH2 0x58D ADD MSTORE DUP2 DUP2 PUSH2 0x6B2 ADD MSTORE DUP2 DUP2 PUSH2 0x8DD ADD MSTORE PUSH2 0xAC1 ADD MSTORE PUSH1 0xA0 MLOAD DUP2 DUP2 DUP2 PUSH2 0x169 ADD MSTORE DUP2 DUP2 PUSH2 0x84E ADD MSTORE DUP2 DUP2 PUSH2 0x886 ADD MSTORE DUP2 DUP2 PUSH2 0xB4D ADD MSTORE PUSH2 0xB90 ADD MSTORE RETURN JUMPDEST PUSH1 0x40 MLOAD PUSH4 0x1E4FBDF7 PUSH1 0xE0 SHL DUP2 MSTORE PUSH1 0x0 PUSH1 0x4 DUP3 ADD MSTORE PUSH1 0x24 SWAP1 REVERT JUMPDEST PUSH1 0x0 DUP1 REVERT JUMPDEST PUSH4 0x4E487B71 PUSH1 0xE0 SHL PUSH1 0x0 MSTORE PUSH1 0x41 PUSH1 0x4 MSTORE PUSH1 0x24 PUSH1 0x0 REVERT INVALID PUSH1 0x40 PUSH1 0x80 DUP2 MSTORE PUSH1 0x4 SWAP1 DUP2 CALLDATASIZE LT ISZERO PUSH2 0x15 JUMPI PUSH1 0x0 DUP1 REVERT JUMPDEST PUSH1 0x0 SWAP1 DUP2 CALLDATALOAD PUSH1 0xE0 SHR DUP1 PUSH4 0x33289A46 EQ PUSH2 0x8B5 JUMPI DUP1 PUSH4 0x3E413BEE EQ PUSH2 0x872 JUMPI DUP1 PUSH4 0x5B06DECE EQ PUSH2 0x81F JUMPI DUP1 PUSH4 0x715018A6 EQ PUSH2 0x7C5 JUMPI DUP1 PUSH4 0x8AEB3CE7 EQ PUSH2 0x771 JUMPI DUP1 PUSH4 0x8DA5CB5B EQ PUSH2 0x74A JUMPI DUP1 PUSH4 0xA9A23409 EQ PUSH2 0x6E1 JUMPI DUP1 PUSH4 0xB0D691FE EQ PUSH2 0x69E JUMPI DUP1 PUSH4 0xB95BAB66 EQ PUSH2 0x60D JUMPI DUP1 PUSH4 0xC399EC88 EQ PUSH2 0x560 JUMPI DUP1 PUSH4 0xCE2605AF EQ PUSH2 0x542 JUMPI DUP1 PUSH4 0xD0E30DB0 EQ PUSH2 0x4AB JUMPI DUP1 PUSH4 0xF2FDE38B EQ PUSH2 0x412 JUMPI PUSH4 0xF465C77E EQ PUSH2 0xBB JUMPI PUSH1 0x0 DUP1 REVERT JUMPDEST CALLVALUE PUSH2 0x407 JUMPI PUSH1 0x60 SWAP1 PUSH1 0x3 NOT SWAP3 DUP3 DUP5 CALLDATASIZE ADD SLT PUSH2 0x40F JUMPI DUP5 CALLDATALOAD SWAP4 PUSH8 0xFFFFFFFFFFFFFFFF SWAP1 DUP2 DUP7 GT PUSH2 0x40B JUMPI PUSH2 0x160 SWAP1 DUP7 CALLDATASIZE SUB ADD SLT PUSH2 0x407 JUMPI PUSH1 0x44 CALLDATALOAD SWAP6 PUSH1 0x1 PUSH1 0x1 PUSH1 0xA0 SHL SUB SWAP6 PUSH2 0x12B CALLER PUSH32 0x0 DUP10 AND EQ PUSH2 0x971 JUMP JUMPDEST DUP2 ADD CALLDATALOAD SWAP2 DUP7 DUP4 AND DUP1 SWAP4 SUB PUSH2 0x403 JUMPI PUSH3 0xF4240 DUP1 DUP10 MUL SWAP1 DUP10 DUP3 DIV EQ DUP10 ISZERO OR ISZERO PUSH2 0x3F0 JUMPI PUSH1 0x1 SLOAD PUSH2 0x159 SWAP2 PUSH2 0x9BD JUMP JUMPDEST SWAP2 PUSH3 0x186A0 DUP4 ADD DUP1 SWAP4 GT PUSH2 0x3DD JUMPI PUSH32 0x0 SWAP8 DUP9 AND SWAP8 DUP7 MLOAD SWAP3 PUSH4 0x70A08231 PUSH1 0xE0 SHL DUP5 MSTORE DUP6 DUP4 DUP6 ADD MSTORE PUSH1 0x20 SWAP10 PUSH1 0x24 SWAP5 DUP12 DUP2 DUP8 DUP2 DUP6 GAS STATICCALL SWAP1 DUP2 ISZERO PUSH2 0x3D3 JUMPI SWAP1 DUP8 SWAP2 DUP11 SWAP2 PUSH2 0x3A2 JUMPI JUMPDEST POP LT PUSH2 0x367 JUMPI DUP11 PUSH1 0x44 SWAP2 DUP11 MLOAD SWAP3 DUP4 DUP1 SWAP3 PUSH4 0x6EB1769F PUSH1 0xE1 SHL DUP3 MSTORE DUP12 DUP10 DUP4 ADD MSTORE ADDRESS DUP11 DUP4 ADD MSTORE GAS STATICCALL SWAP1 DUP2 ISZERO PUSH2 0x35D JUMPI SWAP1 DUP7 SWAP2 DUP10 SWAP2 PUSH2 0x327 JUMPI JUMPDEST POP LT PUSH2 0x2E5 JUMPI DUP8 MLOAD PUSH4 0x23B872DD PUSH1 0xE0 SHL DUP12 DUP3 ADD MSTORE DUP5 DUP2 ADD DUP8 SWAP1 MSTORE ADDRESS PUSH1 0x44 DUP3 ADD MSTORE PUSH1 0x64 DUP1 DUP3 ADD DUP8 SWAP1 MSTORE DUP2 MSTORE SWAP3 PUSH1 0xA0 DUP5 ADD SWAP2 DUP3 GT DUP5 DUP4 LT OR PUSH2 0x2D1 JUMPI POP PUSH32 0xAFE65894F5DC3EC01B36EB697AB05531317B716BE71D4669D818E0B0E774E030 SWAP5 SWAP3 DUP10 SWAP5 SWAP3 PUSH2 0x25F SWAP3 DUP11 MSTORE PUSH2 0xA45 JUMP JUMPDEST DUP7 MLOAD SWAP10 DUP6 DUP11 DUP13 ADD MSTORE DUP3 DUP9 DUP13 ADD MSTORE DUP1 DUP5 DUP13 ADD MSTORE DUP4 DUP12 MSTORE PUSH2 0x27D DUP12 PUSH2 0xA07 JUMP JUMPDEST DUP8 MLOAD SWAP3 DUP4 MSTORE DUP10 DUP4 ADD MSTORE CALLDATALOAD DUP7 DUP3 ADD MSTORE LOG2 DUP2 MLOAD SWAP4 DUP3 DUP6 MSTORE DUP6 MLOAD DUP1 SWAP4 DUP7 ADD MSTORE DUP2 JUMPDEST DUP4 DUP2 LT PUSH2 0x2BE JUMPI POP DUP5 DUP4 ADD DUP5 ADD DUP3 SWAP1 MSTORE DUP5 ADD MSTORE PUSH1 0x1F ADD PUSH1 0x1F NOT AND DUP3 ADD DUP3 SWAP1 SUB ADD SWAP1 RETURN JUMPDEST DUP7 DUP2 ADD DUP3 ADD MLOAD DUP7 DUP3 ADD DUP7 ADD MSTORE DUP2 ADD PUSH2 0x29B JUMP JUMPDEST PUSH1 0x41 DUP6 SWAP2 PUSH4 0x4E487B71 PUSH1 0xE0 SHL PUSH1 0x0 MSTORE MSTORE PUSH1 0x0 REVERT JUMPDEST DUP8 MLOAD PUSH3 0x461BCD PUSH1 0xE5 SHL DUP2 MSTORE DUP1 DUP5 ADD DUP12 SWAP1 MSTORE PUSH1 0x1B DUP2 DUP7 ADD MSTORE PUSH32 0x416C6C6F77616E6365205553444320696E737566666973616E74650000000000 PUSH1 0x44 DUP3 ADD MSTORE PUSH1 0x64 SWAP1 REVERT JUMPDEST DUP1 SWAP3 POP DUP13 DUP1 SWAP3 POP RETURNDATASIZE DUP4 GT PUSH2 0x356 JUMPI JUMPDEST PUSH2 0x340 DUP2 DUP4 PUSH2 0xA23 JUMP JUMPDEST DUP2 ADD SUB SLT PUSH2 0x351 JUMPI DUP6 SWAP1 MLOAD CODESIZE PUSH2 0x1F3 JUMP JUMPDEST PUSH1 0x0 DUP1 REVERT JUMPDEST POP RETURNDATASIZE PUSH2 0x336 JUMP JUMPDEST DUP10 MLOAD RETURNDATASIZE DUP11 DUP3 RETURNDATACOPY RETURNDATASIZE SWAP1 REVERT JUMPDEST DUP9 MLOAD PUSH3 0x461BCD PUSH1 0xE5 SHL DUP2 MSTORE DUP1 DUP6 ADD DUP13 SWAP1 MSTORE PUSH1 0x16 DUP2 DUP8 ADD MSTORE PUSH22 0x14DBDB1919481554D110C81A5B9CDD59999A5CD85B9D PUSH1 0x52 SHL PUSH1 0x44 DUP3 ADD MSTORE PUSH1 0x64 SWAP1 REVERT JUMPDEST DUP1 SWAP3 POP DUP14 DUP1 SWAP3 POP RETURNDATASIZE DUP4 GT PUSH2 0x3CC JUMPI JUMPDEST PUSH2 0x3BB DUP2 DUP4 PUSH2 0xA23 JUMP JUMPDEST DUP2 ADD SUB SLT PUSH2 0x351 JUMPI DUP7 SWAP1 MLOAD CODESIZE PUSH2 0x1BC JUMP JUMPDEST POP RETURNDATASIZE PUSH2 0x3B1 JUMP JUMPDEST DUP11 MLOAD RETURNDATASIZE DUP12 DUP3 RETURNDATACOPY RETURNDATASIZE SWAP1 REVERT JUMPDEST PUSH4 0x4E487B71 PUSH1 0xE0 SHL DUP6 MSTORE PUSH1 0x11 SWAP1 MSTORE PUSH1 0x24 DUP5 REVERT JUMPDEST PUSH4 0x4E487B71 PUSH1 0xE0 SHL DUP6 MSTORE PUSH1 0x11 DUP4 MSTORE PUSH1 0x24 DUP6 REVERT JUMPDEST DUP4 DUP1 REVERT JUMPDEST POP DUP1 REVERT JUMPDEST DUP3 DUP1 REVERT JUMPDEST DUP1 REVERT JUMPDEST POP DUP3 SWAP1 CALLVALUE PUSH2 0x40B JUMPI PUSH1 0x20 CALLDATASIZE PUSH1 0x3 NOT ADD SLT PUSH2 0x40B JUMPI PUSH1 0x1 PUSH1 0x1 PUSH1 0xA0 SHL SUB DUP3 CALLDATALOAD DUP2 DUP2 AND SWAP4 SWAP2 SWAP3 SWAP1 DUP5 SWAP1 SUB PUSH2 0x4A7 JUMPI PUSH2 0x446 PUSH2 0x945 JUMP JUMPDEST DUP4 ISZERO PUSH2 0x491 JUMPI POP POP PUSH1 0x0 SLOAD DUP3 PUSH12 0xFFFFFFFFFFFFFFFFFFFFFFFF PUSH1 0xA0 SHL DUP3 AND OR PUSH1 0x0 SSTORE AND PUSH32 0x8BE0079C531659141344CD1FD0A4F28419497F9722A3DAAFE3B4186F6B6457E0 PUSH1 0x0 DUP1 LOG3 DUP1 RETURN JUMPDEST MLOAD PUSH4 0x1E4FBDF7 PUSH1 0xE0 SHL DUP2 MSTORE SWAP1 DUP2 ADD DUP5 SWAP1 MSTORE PUSH1 0x24 SWAP1 REVERT JUMPDEST DUP5 DUP1 REVERT JUMPDEST POP SWAP2 DUP2 SWAP3 DUP3 PUSH1 0x3 NOT CALLDATASIZE ADD SLT PUSH2 0x53E JUMPI PUSH2 0x4C2 PUSH2 0x945 JUMP JUMPDEST PUSH32 0x0 PUSH1 0x1 PUSH1 0x1 PUSH1 0xA0 SHL SUB AND SWAP2 DUP3 EXTCODESIZE ISZERO PUSH2 0x539 JUMPI DUP4 SWAP1 PUSH1 0x24 DUP4 MLOAD DUP1 SWAP6 DUP2 SWAP4 PUSH4 0xB760FAF9 PUSH1 0xE0 SHL DUP4 MSTORE ADDRESS SWAP1 DUP4 ADD MSTORE CALLVALUE SWAP1 GAS CALL SWAP1 DUP2 ISZERO PUSH2 0x530 JUMPI POP PUSH2 0x520 JUMPI POP RETURN JUMPDEST PUSH2 0x529 SWAP1 PUSH2 0x9DD JUMP JUMPDEST PUSH2 0x40F JUMPI DUP1 RETURN JUMPDEST MLOAD RETURNDATASIZE DUP5 DUP3 RETURNDATACOPY RETURNDATASIZE SWAP1 REVERT JUMPDEST POP POP POP REVERT JUMPDEST POP POP REVERT JUMPDEST POP CALLVALUE PUSH2 0x407 JUMPI DUP2 PUSH1 0x3 NOT CALLDATASIZE ADD SLT PUSH2 0x407 JUMPI PUSH1 0x20 SWAP1 PUSH1 0x1 SLOAD SWAP1 MLOAD SWAP1 DUP2 MSTORE RETURN JUMPDEST POP CALLVALUE PUSH2 0x407 JUMPI DUP2 PUSH1 0x3 NOT CALLDATASIZE ADD SLT PUSH2 0x407 JUMPI DUP1 MLOAD PUSH4 0x70A08231 PUSH1 0xE0 SHL DUP2 MSTORE ADDRESS SWAP4 DUP2 ADD SWAP4 SWAP1 SWAP4 MSTORE PUSH1 0x20 DUP4 PUSH1 0x24 DUP2 PUSH32 0x0 PUSH1 0x1 PUSH1 0x1 PUSH1 0xA0 SHL SUB AND GAS STATICCALL SWAP2 DUP3 ISZERO PUSH2 0x602 JUMPI SWAP2 PUSH2 0x5CE JUMPI JUMPDEST PUSH1 0x20 SWAP3 POP MLOAD SWAP1 DUP2 MSTORE RETURN JUMPDEST SWAP1 POP PUSH1 0x20 DUP3 RETURNDATASIZE DUP3 GT PUSH2 0x5FA JUMPI JUMPDEST DUP2 PUSH2 0x5E8 PUSH1 0x20 SWAP4 DUP4 PUSH2 0xA23 JUMP JUMPDEST DUP2 ADD SUB SLT PUSH2 0x351 JUMPI PUSH1 0x20 SWAP2 MLOAD SWAP1 PUSH2 0x5C4 JUMP JUMPDEST RETURNDATASIZE SWAP2 POP PUSH2 0x5DB JUMP JUMPDEST SWAP1 MLOAD SWAP1 RETURNDATASIZE SWAP1 DUP3 RETURNDATACOPY RETURNDATASIZE SWAP1 REVERT JUMPDEST POP DUP3 CALLVALUE PUSH2 0x40B JUMPI PUSH1 0x20 CALLDATASIZE PUSH1 0x3 NOT ADD SLT PUSH2 0x40B JUMPI DUP1 CALLDATALOAD SWAP1 PUSH2 0x62B PUSH2 0x945 JUMP JUMPDEST DUP2 ISZERO PUSH2 0x66B JUMPI POP SWAP1 PUSH32 0xE335B031F0EF293EB2AE4BB1453EF1BA92FFC180905BF925E29290DD546C1661 SWAP2 PUSH1 0x1 SLOAD SWAP1 DUP1 PUSH1 0x1 SSTORE DUP3 MLOAD SWAP2 DUP3 MSTORE PUSH1 0x20 DUP3 ADD MSTORE LOG1 DUP1 RETURN JUMPDEST PUSH1 0x64 SWAP1 PUSH1 0x20 DUP5 MLOAD SWAP2 PUSH3 0x461BCD PUSH1 0xE5 SHL DUP4 MSTORE DUP3 ADD MSTORE PUSH1 0xD PUSH1 0x24 DUP3 ADD MSTORE PUSH13 0x5461757820696E76616C696465 PUSH1 0x98 SHL PUSH1 0x44 DUP3 ADD MSTORE REVERT JUMPDEST POP CALLVALUE PUSH2 0x407 JUMPI DUP2 PUSH1 0x3 NOT CALLDATASIZE ADD SLT PUSH2 0x407 JUMPI MLOAD PUSH32 0x0 PUSH1 0x1 PUSH1 0x1 PUSH1 0xA0 SHL SUB AND DUP2 MSTORE PUSH1 0x20 SWAP1 RETURN JUMPDEST DUP3 DUP5 CALLVALUE PUSH2 0x407 JUMPI PUSH1 0x60 CALLDATASIZE PUSH1 0x3 NOT ADD SLT PUSH2 0x407 JUMPI DUP1 CALLDATALOAD SWAP1 PUSH1 0x3 DUP3 LT ISZERO PUSH2 0x40B JUMPI PUSH1 0x24 CALLDATALOAD SWAP1 PUSH8 0xFFFFFFFFFFFFFFFF SWAP1 DUP2 DUP4 GT PUSH2 0x4A7 JUMPI CALLDATASIZE PUSH1 0x23 DUP5 ADD SLT ISZERO PUSH2 0x4A7 JUMPI DUP3 ADD CALLDATALOAD SWAP1 DUP2 GT PUSH2 0x403 JUMPI CALLDATASIZE PUSH1 0x24 DUP3 DUP5 ADD ADD GT PUSH2 0x403 JUMPI PUSH2 0x747 SWAP3 PUSH1 0x24 PUSH1 0x44 CALLDATALOAD SWAP4 ADD SWAP1 PUSH2 0xAAD JUMP JUMPDEST DUP1 RETURN JUMPDEST POP CALLVALUE PUSH2 0x407 JUMPI DUP2 PUSH1 0x3 NOT CALLDATASIZE ADD SLT PUSH2 0x407 JUMPI SWAP1 SLOAD SWAP1 MLOAD PUSH1 0x1 PUSH1 0x1 PUSH1 0xA0 SHL SUB SWAP1 SWAP2 AND DUP2 MSTORE PUSH1 0x20 SWAP1 RETURN JUMPDEST POP SWAP1 CALLVALUE PUSH2 0x40F JUMPI PUSH1 0x20 CALLDATASIZE PUSH1 0x3 NOT ADD SLT PUSH2 0x40F JUMPI PUSH3 0xF4240 DUP4 CALLDATALOAD DUP2 DUP2 MUL SWAP5 SWAP2 DUP2 ISZERO SWAP2 DUP7 DIV EQ OR ISZERO PUSH2 0x7B2 JUMPI PUSH1 0x20 DUP4 PUSH2 0x7AB DUP7 PUSH1 0x1 SLOAD SWAP1 PUSH2 0x9BD JUMP JUMPDEST SWAP1 MLOAD SWAP1 DUP2 MSTORE RETURN JUMPDEST PUSH4 0x4E487B71 PUSH1 0xE0 SHL DUP3 MSTORE PUSH1 0x11 SWAP1 MSTORE PUSH1 0x24 SWAP1 REVERT JUMPDEST DUP3 CALLVALUE PUSH2 0x40F JUMPI DUP1 PUSH1 0x3 NOT CALLDATASIZE ADD SLT PUSH2 0x40F JUMPI PUSH2 0x7DE PUSH2 0x945 JUMP JUMPDEST PUSH1 0x0 DUP1 SLOAD PUSH1 0x1 PUSH1 0x1 PUSH1 0xA0 SHL SUB NOT DUP2 AND DUP3 SSTORE PUSH1 0x1 PUSH1 0x1 PUSH1 0xA0 SHL SUB AND PUSH32 0x8BE0079C531659141344CD1FD0A4F28419497F9722A3DAAFE3B4186F6B6457E0 DUP3 DUP1 LOG3 DUP1 RETURN JUMPDEST DUP3 DUP5 CALLVALUE PUSH2 0x407 JUMPI PUSH1 0x20 CALLDATASIZE PUSH1 0x3 NOT ADD SLT PUSH2 0x407 JUMPI PUSH2 0x747 SWAP1 PUSH2 0x83E PUSH2 0x945 JUMP JUMPDEST DUP3 SLOAD SWAP1 CALLDATALOAD SWAP1 PUSH1 0x1 PUSH1 0x1 PUSH1 0xA0 SHL SUB AND PUSH32 0x0 PUSH2 0xBCA JUMP JUMPDEST POP CALLVALUE PUSH2 0x407 JUMPI DUP2 PUSH1 0x3 NOT CALLDATASIZE ADD SLT PUSH2 0x407 JUMPI MLOAD PUSH32 0x0 PUSH1 0x1 PUSH1 0x1 PUSH1 0xA0 SHL SUB AND DUP2 MSTORE PUSH1 0x20 SWAP1 RETURN JUMPDEST POP DUP3 SWAP1 CALLVALUE PUSH2 0x40B JUMPI PUSH1 0x20 CALLDATASIZE PUSH1 0x3 NOT ADD SLT PUSH2 0x40B JUMPI PUSH2 0x8D1 PUSH2 0x945 JUMP JUMPDEST DUP3 SLOAD PUSH1 0x1 PUSH1 0x1 PUSH1 0xA0 SHL SUB PUSH32 0x0 DUP2 AND SWAP4 DUP6 SWAP3 SWAP1 SWAP2 AND DUP5 EXTCODESIZE ISZERO PUSH2 0x40B JUMPI PUSH1 0x44 SWAP1 DUP4 DUP6 MLOAD SWAP7 DUP8 SWAP5 DUP6 SWAP4 PUSH4 0x40B850F PUSH1 0xE3 SHL DUP6 MSTORE DUP2 DUP6 ADD MSTORE CALLDATALOAD PUSH1 0x24 DUP5 ADD MSTORE GAS CALL SWAP1 DUP2 ISZERO PUSH2 0x530 JUMPI POP PUSH2 0x93C JUMPI POP DUP1 RETURN JUMPDEST PUSH2 0x747 SWAP1 PUSH2 0x9DD JUMP JUMPDEST PUSH1 0x0 SLOAD PUSH1 0x1 PUSH1 0x1 PUSH1 0xA0 SHL SUB AND CALLER SUB PUSH2 0x959 JUMPI JUMP JUMPDEST PUSH1 0x40 MLOAD PUSH4 0x118CDAA7 PUSH1 0xE0 SHL DUP2 MSTORE CALLER PUSH1 0x4 DUP3 ADD MSTORE PUSH1 0x24 SWAP1 REVERT JUMPDEST ISZERO PUSH2 0x978 JUMPI JUMP JUMPDEST PUSH1 0x40 MLOAD PUSH3 0x461BCD PUSH1 0xE5 SHL DUP2 MSTORE PUSH1 0x20 PUSH1 0x4 DUP3 ADD MSTORE PUSH1 0x18 PUSH1 0x24 DUP3 ADD MSTORE PUSH32 0x5365756C20456E747279506F696E74206175746F726973650000000000000000 PUSH1 0x44 DUP3 ADD MSTORE PUSH1 0x64 SWAP1 REVERT JUMPDEST DUP2 ISZERO PUSH2 0x9C7 JUMPI DIV SWAP1 JUMP JUMPDEST PUSH4 0x4E487B71 PUSH1 0xE0 SHL PUSH1 0x0 MSTORE PUSH1 0x12 PUSH1 0x4 MSTORE PUSH1 0x24 PUSH1 0x0 REVERT JUMPDEST PUSH8 0xFFFFFFFFFFFFFFFF DUP2 GT PUSH2 0x9F1 JUMPI PUSH1 0x40 MSTORE JUMP JUMPDEST PUSH4 0x4E487B71 PUSH1 0xE0 SHL PUSH1 0x0 MSTORE PUSH1 0x41 PUSH1 0x4 MSTORE PUSH1 0x24 PUSH1 0x0 REVERT JUMPDEST PUSH1 0x80 DUP2 ADD SWAP1 DUP2 LT PUSH8 0xFFFFFFFFFFFFFFFF DUP3 GT OR PUSH2 0x9F1 JUMPI PUSH1 0x40 MSTORE JUMP JUMPDEST SWAP1 PUSH1 0x1F DUP1 NOT SWAP2 ADD AND DUP2 ADD SWAP1 DUP2 LT PUSH8 0xFFFFFFFFFFFFFFFF DUP3 GT OR PUSH2 0x9F1 JUMPI PUSH1 0x40 MSTORE JUMP JUMPDEST SWAP1 PUSH1 0x0 PUSH1 0x20 SWAP2 DUP3 DUP2 MLOAD SWAP2 ADD DUP3 DUP6 GAS CALL ISZERO PUSH2 0xAA1 JUMPI PUSH1 0x0 MLOAD RETURNDATASIZE PUSH2 0xA98 JUMPI POP PUSH1 0x1 PUSH1 0x1 PUSH1 0xA0 SHL SUB DUP2 AND EXTCODESIZE ISZERO JUMPDEST PUSH2 0xA76 JUMPI POP JUMP JUMPDEST PUSH1 0x40 MLOAD PUSH4 0x5274AFE7 PUSH1 0xE0 SHL DUP2 MSTORE PUSH1 0x1 PUSH1 0x1 PUSH1 0xA0 SHL SUB SWAP1 SWAP2 AND PUSH1 0x4 DUP3 ADD MSTORE PUSH1 0x24 SWAP1 REVERT JUMPDEST PUSH1 0x1 EQ ISZERO PUSH2 0xA6F JUMP JUMPDEST PUSH1 0x40 MLOAD RETURNDATASIZE PUSH1 0x0 DUP3 RETURNDATACOPY RETURNDATASIZE SWAP1 REVERT JUMPDEST SWAP2 SWAP3 SWAP1 PUSH1 0x60 DUP2 PUSH1 0x1 DUP1 PUSH1 0xA0 SHL SUB SWAP6 PUSH2 0xAE8 DUP8 PUSH32 0x0 AND CALLER EQ PUSH2 0x971 JUMP JUMPDEST DUP2 ADD SUB SLT PUSH2 0x351 JUMPI DUP1 CALLDATALOAD SWAP4 DUP5 AND DUP1 SWAP5 SUB PUSH2 0x351 JUMPI PUSH1 0x20 ADD CALLDATALOAD SWAP2 PUSH1 0x3 DUP2 LT ISZERO PUSH2 0xBB4 JUMPI PUSH1 0x2 EQ PUSH2 0xB89 JUMPI PUSH3 0xF4240 SWAP1 DUP2 DUP2 MUL SWAP2 DUP2 DUP4 DIV EQ SWAP1 ISZERO OR ISZERO PUSH2 0xB73 JUMPI PUSH1 0x1 SLOAD PUSH2 0xB32 SWAP2 PUSH2 0x9BD JUMP JUMPDEST DUP1 DUP3 GT PUSH2 0xB3E JUMPI POP POP POP JUMP JUMPDEST DUP2 SUB SWAP1 DUP2 GT PUSH2 0xB73 JUMPI PUSH2 0xB71 SWAP2 PUSH32 0x0 PUSH2 0xBCA JUMP JUMPDEST JUMP JUMPDEST PUSH4 0x4E487B71 PUSH1 0xE0 SHL PUSH1 0x0 MSTORE PUSH1 0x11 PUSH1 0x4 MSTORE PUSH1 0x24 PUSH1 0x0 REVERT JUMPDEST POP PUSH2 0xB71 SWAP2 PUSH32 0x0 PUSH2 0xBCA JUMP JUMPDEST PUSH4 0x4E487B71 PUSH1 0xE0 SHL PUSH1 0x0 MSTORE PUSH1 0x21 PUSH1 0x4 MSTORE PUSH1 0x24 PUSH1 0x0 REVERT JUMPDEST PUSH1 0x40 MLOAD PUSH4 0xA9059CBB PUSH1 0xE0 SHL PUSH1 0x20 DUP3 ADD MSTORE PUSH1 0x1 PUSH1 0x1 PUSH1 0xA0 SHL SUB SWAP1 SWAP3 AND PUSH1 0x24 DUP4 ADD MSTORE PUSH1 0x44 DUP1 DUP4 ADD SWAP4 SWAP1 SWAP4 MSTORE SWAP2 DUP2 MSTORE PUSH2 0xB71 SWAP2 PUSH2 0xC03 DUP3 PUSH2 0xA07 JUMP JUMPDEST PUSH2 0xA45 JUMP INVALID LOG2 PUSH5 0x6970667358 0x22 SLT KECCAK256 0xA5 0xB9 0xE6 PUSH32 0x5D7F22A3C9BE5B98611FA249CB5DA6D42A6EDBF9031A2563BB22EF7464736F6C PUSH4 0x43000814 STOP CALLER "},"methodIdentifiers":{"calculateUsdcCost(uint256)":"8aeb3ce7","deposit()":"d0e30db0","entryPoint()":"b0d691fe","getDeposit()":"c399ec88","owner()":"8da5cb5b","postOp(uint8,bytes,uint256)":"a9a23409","renounceOwnership()":"715018a6","transferOwnership(address)":"f2fde38b","updateUsdcToEthRate(uint256)":"b95bab66","usdc()":"3e413bee","usdcToEthRate()":"ce2605af","validatePaymasterUserOp((address,uint256,bytes,bytes,uint256,uint256,uint256,uint256,uint256,bytes,bytes),bytes32,uint256)":"f465c77e","withdrawDeposit(uint256)":"33289a46","withdrawUsdc(uint256)":"5b06dece"}}}}}