{
  "_format": "hh-sol-artifact-1",
  "contractName": "CirclePaymaster",
  "sourceName": "contracts/CirclePaymaster.sol",
  "abi": [
    {
      "inputs": [
        {
          "internalType": "contract IEntryPoint",
          "name": "_entryPoint",
          "type": "address"
        },
        {
          "internalType": "contract IERC20",
          "name": "_usdc",
          "type": "address"
        },
        {
          "internalType": "address",
          "name": "_owner",
          "type": "address"
        }
      ],
      "stateMutability": "nonpayable",
      "type": "constructor"
    },
    {
      "inputs": [
        {
          "internalType": "address",
          "name": "owner",
          "type": "address"
        }
      ],
      "name": "OwnableInvalidOwner",
      "type": "error"
    },
    {
      "inputs": [
        {
          "internalType": "address",
          "name": "account",
          "type": "address"
        }
      ],
      "name": "OwnableUnauthorizedAccount",
      "type": "error"
    },
    {
      "inputs": [
        {
          "internalType": "address",
          "name": "token",
          "type": "address"
        }
      ],
      "name": "SafeERC20FailedOperation",
      "type": "error"
    },
    {
      "anonymous": false,
      "inputs": [
        {
          "indexed": true,
          "internalType": "address",
          "name": "previousOwner",
          "type": "address"
        },
        {
          "indexed": true,
          "internalType": "address",
          "name": "newOwner",
          "type": "address"
        }
      ],
      "name": "OwnershipTransferred",
      "type": "event"
    },
    {
      "anonymous": false,
      "inputs": [
        {
          "indexed": false,
          "internalType": "uint256",
          "name": "oldRate",
          "type": "uint256"
        },
        {
          "indexed": false,
          "internalType": "uint256",
          "name": "newRate",
          "type": "uint256"
        }
      ],
      "name": "UsdcToEthRateUpdated",
      "type": "event"
    },
    {
      "anonymous": false,
      "inputs": [
        {
          "indexed": true,
          "internalType": "address",
          "name": "user",
          "type": "address"
        },
        {
          "indexed": false,
          "internalType": "uint256",
          "name": "usdcAmount",
          "type": "uint256"
        },
        {
          "indexed": false,
          "internalType": "uint256",
          "name": "ethAmount",
          "type": "uint256"
        },
        {
          "indexed": false,
          "internalType": "bytes32",
          "name": "userOpHash",
          "type": "bytes32"
        }
      ],
      "name": "UserOperationSponsored",
      "type": "event"
    },
    {
      "inputs": [
        {
          "internalType": "uint256",
          "name": "ethAmount",
          "type": "uint256"
        }
      ],
      "name": "calculateUsdcCost",
      "outputs": [
        {
          "internalType": "uint256",
          "name": "",
          "type": "uint256"
        }
      ],
      "stateMutability": "view",
      "type": "function"
    },
    {
      "inputs": [],
      "name": "deposit",
      "outputs": [],
      "stateMutability": "payable",
      "type": "function"
    },
    {
      "inputs": [],
      "name": "entryPoint",
      "outputs": [
        {
          "internalType": "contract IEntryPoint",
          "name": "",
          "type": "address"
        }
      ],
      "stateMutability": "view",
      "type": "function"
    },
    {
      "inputs": [],
      "name": "getDeposit",
      "outputs": [
        {
          "internalType": "uint256",
          "name": "",
          "type": "uint256"
        }
      ],
      "stateMutability": "view",
      "type": "function"
    },
    {
      "inputs": [],
      "name": "owner",
      "outputs": [
        {
          "internalType": "address",
          "name": "",
          "type": "address"
        }
      ],
      "stateMutability": "view",
      "type": "function"
    },
    {
      "inputs": [
        {
          "internalType": "enum IPaymaster.PostOpMode",
          "name": "mode",
          "type": "uint8"
        },
        {
          "internalType": "bytes",
          "name": "context",
          "type": "bytes"
        },
        {
          "internalType": "uint256",
          "name": "actualGasCost",
          "type": "uint256"
        }
      ],
      "name": "postOp",
      "outputs": [],
      "stateMutability": "nonpayable",
      "type": "function"
    },
    {
      "inputs": [],
      "name": "renounceOwnership",
      "outputs": [],
      "stateMutability": "nonpayable",
      "type": "function"
    },
    {
      "inputs": [
        {
          "internalType": "address",
          "name": "newOwner",
          "type": "address"
        }
      ],
      "name": "transferOwnership",
      "outputs": [],
      "stateMutability": "nonpayable",
      "type": "function"
    },
    {
      "inputs": [
        {
          "internalType": "uint256",
          "name": "newRate",
          "type": "uint256"
        }
      ],
      "name": "updateUsdcToEthRate",
      "outputs": [],
      "stateMutability": "nonpayable",
      "type": "function"
    },
    {
      "inputs": [],
      "name": "usdc",
      "outputs": [
        {
          "internalType": "contract IERC20",
          "name": "",
          "type": "address"
        }
      ],
      "stateMutability": "view",
      "type": "function"
    },
    {
      "inputs": [],
      "name": "usdcToEthRate",
      "outputs": [
        {
          "internalType": "uint256",
          "name": "",
          "type": "uint256"
        }
      ],
      "stateMutability": "view",
      "type": "function"
    },
    {
      "inputs": [
        {
          "components": [
            {
              "internalType": "address",
              "name": "sender",
              "type": "address"
            },
            {
              "internalType": "uint256",
              "name": "nonce",
              "type": "uint256"
            },
            {
              "internalType": "bytes",
              "name": "initCode",
              "type": "bytes"
            },
            {
              "internalType": "bytes",
              "name": "callData",
              "type": "bytes"
            },
            {
              "internalType": "uint256",
              "name": "callGasLimit",
              "type": "uint256"
            },
            {
              "internalType": "uint256",
              "name": "verificationGasLimit",
              "type": "uint256"
            },
            {
              "internalType": "uint256",
              "name": "preVerificationGas",
              "type": "uint256"
            },
            {
              "internalType": "uint256",
              "name": "maxFeePerGas",
              "type": "uint256"
            },
            {
              "internalType": "uint256",
              "name": "maxPriorityFeePerGas",
              "type": "uint256"
            },
            {
              "internalType": "bytes",
              "name": "paymasterAndData",
              "type": "bytes"
            },
            {
              "internalType": "bytes",
              "name": "signature",
              "type": "bytes"
            }
          ],
          "internalType": "struct UserOperation",
          "name": "userOp",
          "type": "tuple"
        },
        {
          "internalType": "bytes32",
          "name": "userOpHash",
          "type": "bytes32"
        },
        {
          "internalType": "uint256",
          "name": "maxCost",
          "type": "uint256"
        }
      ],
      "name": "validatePaymasterUserOp",
      "outputs": [
        {
          "internalType": "bytes",
          "name": "context",
          "type": "bytes"
        },
        {
          "internalType": "uint256",
          "name": "validationData",
          "type": "uint256"
        }
      ],
      "stateMutability": "nonpayable",
      "type": "function"
    },
    {
      "inputs": [
        {
          "internalType": "uint256",
          "name": "amount",
          "type": "uint256"
        }
      ],
      "name": "withdrawDeposit",
      "outputs": [],
      "stateMutability": "nonpayable",
      "type": "function"
    },
    {
      "inputs": [
        {
          "internalType": "uint256",
          "name": "amount",
          "type": "uint256"
        }
      ],
      "name": "withdrawUsdc",
      "outputs": [],
      "stateMutability": "nonpayable",
      "type": "function"
    }
  ],
  "bytecode": "0x60c03461013a57601f610d9438819003918201601f19168301916001600160401b0383118484101761013f5780849260609460405283398101031261013a5780516001600160a01b039190828116810361013a57602082015191838316830361013a576040015183811680910361013a57801561012157600080546001600160a01b03198116831782556040519516907f8be0079c531659141344cd1fd0a4f28419497f9722a3daafe3b4186f6b6457e09080a36608e1bc9bf0400060015560805260a052610c3e90816101568239608051818181610104015281816104c40152818161058d015281816106b2015281816108dd0152610ac1015260a0518181816101690152818161084e0152818161088601528181610b4d0152610b900152f35b604051631e4fbdf760e01b815260006004820152602490fd5b600080fd5b634e487b7160e01b600052604160045260246000fdfe6040608081526004908136101561001557600080fd5b600090813560e01c806333289a46146108b55780633e413bee146108725780635b06dece1461081f578063715018a6146107c55780638aeb3ce7146107715780638da5cb5b1461074a578063a9a23409146106e1578063b0d691fe1461069e578063b95bab661461060d578063c399ec8814610560578063ce2605af14610542578063d0e30db0146104ab578063f2fde38b146104125763f465c77e146100bb57600080fd5b346104075760609060031992828436011261040f5784359367ffffffffffffffff9081861161040b5761016090863603011261040757604435956001600160a01b039561012b337f0000000000000000000000000000000000000000000000000000000000000000891614610971565b8101359186831680930361040357620f42408089029089820414891517156103f057600154610159916109bd565b91620186a083018093116103dd577f0000000000000000000000000000000000000000000000000000000000000000978816978651926370a0823160e01b845285838501526020996024948b818781855afa9081156103d3579087918a916103a2575b5010610367578a6044918a5192838092636eb1769f60e11b82528b89830152308a8301525afa90811561035d579086918991610327575b50106102e55787516323b872dd60e01b8b820152848101879052306044820152606480820187905281529260a08401918211848310176102d157507fafe65894f5dc3ec01b36eb697ab05531317b716be71d4669d818e0b0e774e030949289949261025f928a52610a45565b865199858a8c015282888c015280848c0152838b5261027d8b610a07565b8751928352898301523586820152a281519382855285518093860152815b8381106102be57508483018401829052840152601f01601f191682018290030190f35b868101820151868201860152810161029b565b60418591634e487b7160e01b600052526000fd5b875162461bcd60e51b81528084018b9052601b818601527f416c6c6f77616e6365205553444320696e737566666973616e746500000000006044820152606490fd5b8092508c8092503d8311610356575b6103408183610a23565b8101031261035157859051386101f3565b600080fd5b503d610336565b89513d8a823e3d90fd5b885162461bcd60e51b81528085018c90526016818701527514dbdb1919481554d110c81a5b9cdd59999a5cd85b9d60521b6044820152606490fd5b8092508d8092503d83116103cc575b6103bb8183610a23565b8101031261035157869051386101bc565b503d6103b1565b8a513d8b823e3d90fd5b634e487b7160e01b855260119052602484fd5b634e487b7160e01b855260118352602485fd5b8380fd5b5080fd5b8280fd5b80fd5b5082903461040b57602036600319011261040b576001600160a01b038235818116939192908490036104a757610446610945565b8315610491575050600054826bffffffffffffffffffffffff60a01b821617600055167f8be0079c531659141344cd1fd0a4f28419497f9722a3daafe3b4186f6b6457e0600080a380f35b51631e4fbdf760e01b8152908101849052602490fd5b8480fd5b509181928260031936011261053e576104c2610945565b7f00000000000000000000000000000000000000000000000000000000000000006001600160a01b031691823b15610539578390602483518095819363b760faf960e01b8352309083015234905af190811561053057506105205750f35b610529906109dd565b61040f5780f35b513d84823e3d90fd5b505050fd5b5050fd5b50346104075781600319360112610407576020906001549051908152f35b503461040757816003193601126104075780516370a0823160e01b815230938101939093526020836024817f00000000000000000000000000000000000000000000000000000000000000006001600160a01b03165afa91821561060257916105ce575b6020925051908152f35b90506020823d82116105fa575b816105e860209383610a23565b810103126103515760209151906105c4565b3d91506105db565b9051903d90823e3d90fd5b50823461040b57602036600319011261040b5780359061062b610945565b811561066b5750907fe335b031f0ef293eb2ae4bb1453ef1ba92ffc180905bf925e29290dd546c166191600154908060015582519182526020820152a180f35b606490602084519162461bcd60e51b8352820152600d60248201526c5461757820696e76616c69646560981b6044820152fd5b5034610407578160031936011261040757517f00000000000000000000000000000000000000000000000000000000000000006001600160a01b03168152602090f35b82843461040757606036600319011261040757803590600382101561040b576024359067ffffffffffffffff908183116104a757366023840112156104a75782013590811161040357366024828401011161040357610747926024604435930190610aad565b80f35b5034610407578160031936011261040757905490516001600160a01b039091168152602090f35b50903461040f57602036600319011261040f57620f42408335818102949181159186041417156107b2576020836107ab86600154906109bd565b9051908152f35b634e487b7160e01b825260119052602490fd5b823461040f578060031936011261040f576107de610945565b600080546001600160a01b0319811682556001600160a01b03167f8be0079c531659141344cd1fd0a4f28419497f9722a3daafe3b4186f6b6457e08280a380f35b828434610407576020366003190112610407576107479061083e610945565b82549035906001600160a01b03167f0000000000000000000000000000000000000000000000000000000000000000610bca565b5034610407578160031936011261040757517f00000000000000000000000000000000000000000000000000000000000000006001600160a01b03168152602090f35b5082903461040b57602036600319011261040b576108d1610945565b82546001600160a01b037f00000000000000000000000000000000000000000000000000000000000000008116938592909116843b1561040b57604490838551968794859363040b850f60e31b8552818501523560248401525af1908115610530575061093c575080f35b610747906109dd565b6000546001600160a01b0316330361095957565b60405163118cdaa760e01b8152336004820152602490fd5b1561097857565b60405162461bcd60e51b815260206004820152601860248201527f5365756c20456e747279506f696e74206175746f7269736500000000000000006044820152606490fd5b81156109c7570490565b634e487b7160e01b600052601260045260246000fd5b67ffffffffffffffff81116109f157604052565b634e487b7160e01b600052604160045260246000fd5b6080810190811067ffffffffffffffff8211176109f157604052565b90601f8019910116810190811067ffffffffffffffff8211176109f157604052565b906000602091828151910182855af115610aa1576000513d610a9857506001600160a01b0381163b155b610a765750565b604051635274afe760e01b81526001600160a01b039091166004820152602490fd5b60011415610a6f565b6040513d6000823e3d90fd5b91929060608160018060a01b0395610ae8877f0000000000000000000000000000000000000000000000000000000000000000163314610971565b810103126103515780359384168094036103515760200135916003811015610bb457600214610b8957620f424090818102918183041490151715610b7357600154610b32916109bd565b808211610b3e57505050565b8103908111610b7357610b71917f0000000000000000000000000000000000000000000000000000000000000000610bca565b565b634e487b7160e01b600052601160045260246000fd5b50610b71917f0000000000000000000000000000000000000000000000000000000000000000610bca565b634e487b7160e01b600052602160045260246000fd5b60405163a9059cbb60e01b60208201526001600160a01b039092166024830152604480830193909352918152610b7191610c0382610a07565b610a4556fea2646970667358221220a5b9e67f5d7f22a3c9be5b98611fa249cb5da6d42a6edbf9031a2563bb22ef7464736f6c63430008140033",
  "linkReferences": {},
  "deployedLinkReferences": {}
}